{
  "_format": "hh-sol-artifact-1",
  "contractName": "ERC1155Marketplace",
  "sourceName": "contracts/ERC1155Marketplace.sol",
  "abi": [
    {
      "inputs": [],
      "stateMutability": "nonpayable",
      "type": "constructor"
    },
    {
      "anonymous": false,
      "inputs": [
        {
          "indexed": true,
          "internalType": "address",
          "name": "account",
          "type": "address"
        },
        {
          "indexed": true,
          "internalType": "address",
          "name": "operator",
          "type": "address"
        },
        {
          "indexed": false,
          "internalType": "bool",
          "name": "approved",
          "type": "bool"
        }
      ],
      "name": "ApprovalForAll",
      "type": "event"
    },
    {
      "anonymous": false,
      "inputs": [
        {
          "indexed": true,
          "internalType": "address",
          "name": "previousOwner",
          "type": "address"
        },
        {
          "indexed": true,
          "internalType": "address",
          "name": "newOwner",
          "type": "address"
        }
      ],
      "name": "OwnershipTransferred",
      "type": "event"
    },
    {
      "anonymous": false,
      "inputs": [
        {
          "indexed": true,
          "internalType": "address",
          "name": "operator",
          "type": "address"
        },
        {
          "indexed": true,
          "internalType": "address",
          "name": "from",
          "type": "address"
        },
        {
          "indexed": true,
          "internalType": "address",
          "name": "to",
          "type": "address"
        },
        {
          "indexed": false,
          "internalType": "uint256[]",
          "name": "ids",
          "type": "uint256[]"
        },
        {
          "indexed": false,
          "internalType": "uint256[]",
          "name": "values",
          "type": "uint256[]"
        }
      ],
      "name": "TransferBatch",
      "type": "event"
    },
    {
      "anonymous": false,
      "inputs": [
        {
          "indexed": true,
          "internalType": "address",
          "name": "operator",
          "type": "address"
        },
        {
          "indexed": true,
          "internalType": "address",
          "name": "from",
          "type": "address"
        },
        {
          "indexed": true,
          "internalType": "address",
          "name": "to",
          "type": "address"
        },
        {
          "indexed": false,
          "internalType": "uint256",
          "name": "id",
          "type": "uint256"
        },
        {
          "indexed": false,
          "internalType": "uint256",
          "name": "value",
          "type": "uint256"
        }
      ],
      "name": "TransferSingle",
      "type": "event"
    },
    {
      "anonymous": false,
      "inputs": [
        {
          "indexed": false,
          "internalType": "string",
          "name": "value",
          "type": "string"
        },
        {
          "indexed": true,
          "internalType": "uint256",
          "name": "id",
          "type": "uint256"
        }
      ],
      "name": "URI",
      "type": "event"
    },
    {
      "inputs": [
        {
          "internalType": "address",
          "name": "account",
          "type": "address"
        },
        {
          "internalType": "uint256",
          "name": "id",
          "type": "uint256"
        }
      ],
      "name": "balanceOf",
      "outputs": [
        {
          "internalType": "uint256",
          "name": "",
          "type": "uint256"
        }
      ],
      "stateMutability": "view",
      "type": "function"
    },
    {
      "inputs": [
        {
          "internalType": "address[]",
          "name": "accounts",
          "type": "address[]"
        },
        {
          "internalType": "uint256[]",
          "name": "ids",
          "type": "uint256[]"
        }
      ],
      "name": "balanceOfBatch",
      "outputs": [
        {
          "internalType": "uint256[]",
          "name": "",
          "type": "uint256[]"
        }
      ],
      "stateMutability": "view",
      "type": "function"
    },
    {
      "inputs": [
        {
          "internalType": "address",
          "name": "account",
          "type": "address"
        },
        {
          "internalType": "uint256",
          "name": "id",
          "type": "uint256"
        },
        {
          "internalType": "uint256",
          "name": "value",
          "type": "uint256"
        }
      ],
      "name": "burn",
      "outputs": [],
      "stateMutability": "nonpayable",
      "type": "function"
    },
    {
      "inputs": [
        {
          "internalType": "address",
          "name": "account",
          "type": "address"
        },
        {
          "internalType": "uint256[]",
          "name": "ids",
          "type": "uint256[]"
        },
        {
          "internalType": "uint256[]",
          "name": "values",
          "type": "uint256[]"
        }
      ],
      "name": "burnBatch",
      "outputs": [],
      "stateMutability": "nonpayable",
      "type": "function"
    },
    {
      "inputs": [
        {
          "internalType": "address",
          "name": "account",
          "type": "address"
        },
        {
          "internalType": "address",
          "name": "operator",
          "type": "address"
        }
      ],
      "name": "isApprovedForAll",
      "outputs": [
        {
          "internalType": "bool",
          "name": "",
          "type": "bool"
        }
      ],
      "stateMutability": "view",
      "type": "function"
    },
    {
      "inputs": [],
      "name": "lastID",
      "outputs": [
        {
          "internalType": "uint256",
          "name": "",
          "type": "uint256"
        }
      ],
      "stateMutability": "view",
      "type": "function"
    },
    {
      "inputs": [
        {
          "internalType": "string",
          "name": "_tokenURI",
          "type": "string"
        },
        {
          "internalType": "uint256",
          "name": "_amt",
          "type": "uint256"
        },
        {
          "internalType": "uint96",
          "name": "_royaltyNumerator",
          "type": "uint96"
        }
      ],
      "name": "nftMint",
      "outputs": [],
      "stateMutability": "nonpayable",
      "type": "function"
    },
    {
      "inputs": [],
      "name": "owner",
      "outputs": [
        {
          "internalType": "address",
          "name": "",
          "type": "address"
        }
      ],
      "stateMutability": "view",
      "type": "function"
    },
    {
      "inputs": [],
      "name": "renounceOwnership",
      "outputs": [],
      "stateMutability": "nonpayable",
      "type": "function"
    },
    {
      "inputs": [
        {
          "internalType": "uint256",
          "name": "_tokenId",
          "type": "uint256"
        },
        {
          "internalType": "uint256",
          "name": "_salePrice",
          "type": "uint256"
        }
      ],
      "name": "royaltyInfo",
      "outputs": [
        {
          "internalType": "address",
          "name": "",
          "type": "address"
        },
        {
          "internalType": "uint256",
          "name": "",
          "type": "uint256"
        }
      ],
      "stateMutability": "view",
      "type": "function"
    },
    {
      "inputs": [
        {
          "internalType": "address",
          "name": "from",
          "type": "address"
        },
        {
          "internalType": "address",
          "name": "to",
          "type": "address"
        },
        {
          "internalType": "uint256[]",
          "name": "ids",
          "type": "uint256[]"
        },
        {
          "internalType": "uint256[]",
          "name": "amounts",
          "type": "uint256[]"
        },
        {
          "internalType": "bytes",
          "name": "data",
          "type": "bytes"
        }
      ],
      "name": "safeBatchTransferFrom",
      "outputs": [],
      "stateMutability": "nonpayable",
      "type": "function"
    },
    {
      "inputs": [
        {
          "internalType": "address",
          "name": "from",
          "type": "address"
        },
        {
          "internalType": "address",
          "name": "to",
          "type": "address"
        },
        {
          "internalType": "uint256",
          "name": "id",
          "type": "uint256"
        },
        {
          "internalType": "uint256",
          "name": "amount",
          "type": "uint256"
        },
        {
          "internalType": "bytes",
          "name": "data",
          "type": "bytes"
        }
      ],
      "name": "safeTransferFrom",
      "outputs": [],
      "stateMutability": "nonpayable",
      "type": "function"
    },
    {
      "inputs": [
        {
          "internalType": "address",
          "name": "operator",
          "type": "address"
        },
        {
          "internalType": "bool",
          "name": "approved",
          "type": "bool"
        }
      ],
      "name": "setApprovalForAll",
      "outputs": [],
      "stateMutability": "nonpayable",
      "type": "function"
    },
    {
      "inputs": [
        {
          "internalType": "bytes4",
          "name": "interfaceId",
          "type": "bytes4"
        }
      ],
      "name": "supportsInterface",
      "outputs": [
        {
          "internalType": "bool",
          "name": "",
          "type": "bool"
        }
      ],
      "stateMutability": "view",
      "type": "function"
    },
    {
      "inputs": [
        {
          "internalType": "address",
          "name": "newOwner",
          "type": "address"
        }
      ],
      "name": "transferOwnership",
      "outputs": [],
      "stateMutability": "nonpayable",
      "type": "function"
    },
    {
      "inputs": [
        {
          "internalType": "uint256",
          "name": "tkid",
          "type": "uint256"
        }
      ],
      "name": "uri",
      "outputs": [
        {
          "internalType": "string",
          "name": "",
          "type": "string"
        }
      ],
      "stateMutability": "view",
      "type": "function"
    }
  ],
  "bytecode": "0x6080346200012a57602081016001600160401b03811182821017620001145760405260008091526002546001908181811c9116801562000109575b6020821014620000f557601f8111620000ab575b600283905560058054336001600160a01b03198216811790925560405191906001600160a01b03167f8be0079c531659141344cd1fd0a4f28419497f9722a3daafe3b4186f6b6457e08680a33360085561211a9081620001308239f35b60028352601f0160051c7f405787fa12a823e0f2b7631cc41b3ba8828b3321ca811111fa75cd3aa3bb5ace908101905b818110620000ea57506200004e565b8381558201620000db565b634e487b7160e01b83526022600452602483fd5b90607f16906200003a565b634e487b7160e01b600052604160045260246000fd5b600080fdfe60406080815260048036101561001457600080fd5b600090813560e01c8062fdd58e146118f257806301ffc9a7146117ee5780630e89341c146116f85780632a55205a146116135780632eb2c2d61461132e5780634a2d001014610c255780634e1273f414610a555780636b20c454146108a8578063715018a6146108255780638da5cb5b146107f0578063a22cb465146106d4578063e31a9d92146106b5578063e985e9c51461065a578063f242432a146102fe578063f2fde38b146101f85763f5298aca146100cf57600080fd5b346101f45760606003193601126101f4576100e8611922565b602435916044359173ffffffffffffffffffffffffffffffffffffffff339116036101b15750826101ae928592610120331515612003565b61012982611f8b565b5061013381611f8b565b50828451610140816119f8565b5281835282602052838320338452602052808484205461016282821015612074565b8385528460205285852033865260205203848420558351918252602082015233907fc3d58168c5ae7397731d063d5bbf3d657854427343f4c083240f7aacaa2d0f62843392a4516119f8565b80f35b606490602086519162461bcd60e51b8352820152601c60248201527f455243313135353a2063616c6c6572206973206e6f74206f776e6572000000006044820152fd5b5080fd5b508290346102fa5760206003193601126102fa57610214611922565b9061021d611b46565b73ffffffffffffffffffffffffffffffffffffffff809216928315610291575050600554827fffffffffffffffffffffffff0000000000000000000000000000000000000000821617600555167f8be0079c531659141344cd1fd0a4f28419497f9722a3daafe3b4186f6b6457e08380a380f35b906020608492519162461bcd60e51b8352820152602660248201527f4f776e61626c653a206e6577206f776e657220697320746865207a65726f206160448201527f64647265737300000000000000000000000000000000000000000000000000006064820152fd5b8280fd5b5082346102fa5760a06003193601126102fa57610319611922565b8361032261194a565b916044359060643560843567ffffffffffffffff8111610656576103499036908901611af4565b9273ffffffffffffffffffffffffffffffffffffffff809316923384148015610637575b61037690611cd0565b861690610384821515611d41565b61038d81611f8b565b5061039783611f8b565b50808652602096868852888720858852885283898820546103ba82821015611db2565b838952888a528a8920878a528a52038988205581875286885288872083885288528887206103e9858254611e23565b905582858a51848152868b8201527fc3d58168c5ae7397731d063d5bbf3d657854427343f4c083240f7aacaa2d0f628c3392a43b610425578580f35b8895879461047f8a51978896879586947ff23a6e61000000000000000000000000000000000000000000000000000000009c8d8752339087015260248601526044850152606484015260a0608484015260a483019061196d565b03925af1869181610608575b5061056657505060019061049d611efe565b6308c379a014610533575b506104bd5750505b8180808381808080808580f35b61052f92505191829162461bcd60e51b8352820160809060208152603460208201527f455243313135353a207472616e7366657220746f206e6f6e2d4552433131353560408201527f526563656976657220696d706c656d656e74657200000000000000000000000060608201520190565b0390fd5b61053b611f1c565b8061054657506104a8565b61052f8591855193849362461bcd60e51b8552840152602483019061196d565b7fffffffff00000000000000000000000000000000000000000000000000000000160390506105965750506104b0565b61052f92505191829162461bcd60e51b8352820160809060208152602860208201527f455243313135353a204552433131353552656365697665722072656a6563746560408201527f6420746f6b656e7300000000000000000000000000000000000000000000000060608201520190565b610629919250843d8611610630575b6106218183611a14565b810190611ec6565b908761048b565b503d610617565b508386526001602090815288872033885290528786205460ff1661036d565b8480fd5b8284346101f457806003193601126101f45760ff8160209361067a611922565b61068261194a565b73ffffffffffffffffffffffffffffffffffffffff91821683526001875283832091168252855220549151911615158152f35b8284346101f457816003193601126101f4576020906006549051908152f35b5082346102fa57806003193601126102fa576106ee611922565b90602435918215158093036106565773ffffffffffffffffffffffffffffffffffffffff1692833314610788575033845260016020528084208385526020528084207fffffffffffffffffffffffffffffffffffffffffffffffffffffffffffffff0081541660ff8416179055519081527f17307eab39ab6107e8899845ad3d59bd9653f200f220920489ca2b5937696c3160203392a380f35b6020608492519162461bcd60e51b8352820152602960248201527f455243313135353a2073657474696e6720617070726f76616c2073746174757360448201527f20666f722073656c6600000000000000000000000000000000000000000000006064820152fd5b8284346101f457816003193601126101f45760209073ffffffffffffffffffffffffffffffffffffffff600554169051908152f35b82346108a557806003193601126108a55761083e611b46565b8073ffffffffffffffffffffffffffffffffffffffff6005547fffffffffffffffffffffffff00000000000000000000000000000000000000008116600555167f8be0079c531659141344cd1fd0a4f28419497f9722a3daafe3b4186f6b6457e08280a380f35b80fd5b5090346108a55760606003193601126108a5576108c3611922565b9267ffffffffffffffff92602435848111610a51576108e59036908301611a4f565b93604435908111610a515761091273ffffffffffffffffffffffffffffffffffffffff9136908401611a4f565b9516903382036109e85750610928811515612003565b6109358451865114611e30565b828251610941816119f8565b52825b84518110156109a5578061095b6109a09287611c8d565b516109668289611c8d565b519080875260208781528688208689528152868820549161098984841015612074565b885287815286882090868952520384862055611c4f565b610944565b50916101ae9281947f4a39dc06d4c0dbc64b70af90fd698a233a518aa5d07e595d983b8c0526c8f7fb6109df888651918291339583611ea1565b0390a4516119f8565b608490602084519162461bcd60e51b8352820152602960248201527f455243313135353a2063616c6c6572206973206e6f74206f776e6572206e6f7260448201527f20617070726f76656400000000000000000000000000000000000000000000006064820152fd5b8380fd5b508290346102fa57816003193601126102fa57803567ffffffffffffffff8082116106565736602383011215610656578183013590610a9382611a37565b92610aa086519485611a14565b82845260209260248486019160051b83010191368311610c2157602401905b828210610bf157505050602435908111610bed57610ae09036908501611a4f565b928251845103610b865750815194601f19610b12610afd88611a37565b97610b0a8851998a611a14565b808952611a37565b0136838801375b8251811015610b705780610b5b73ffffffffffffffffffffffffffffffffffffffff610b48610b6b9487611c8d565b5116610b548388611c8d565b5190611bab565b610b658289611c8d565b52611c4f565b610b19565b845182815280610b8281850189611b12565b0390f35b60849185519162461bcd60e51b8352820152602960248201527f455243313135353a206163636f756e747320616e6420696473206c656e67746860448201527f206d69736d6174636800000000000000000000000000000000000000000000006064820152fd5b8580fd5b813573ffffffffffffffffffffffffffffffffffffffff81168103610c1d578152908401908401610abf565b8980fd5b8880fd5b508290346102fa5760606003193601126102fa5780359167ffffffffffffffff91828411610656573660238501121561065657610c6c602494369086818501359101611aad565b843593604435946bffffffffffffffffffffffff861680960361132a57600654906001918281018091116112ff57600655835190838211610f9257610cb2600254611fb0565b91601f9283811161129c575b50806020848211600114611220578c91611215575b5060001982861b9260031b1c1916176002555b600654807f6bb7ff708619ba0610cba295a58592e0451dee2622938c8755667688daf3529b89516020815280610d1f602082018b61196d565b0390a28751610d2d816119f8565b8b815233156111ad57818c8a92610d458b9695611f8b565b50610d4f85611f8b565b5082825281602052838220338352602052838220610d6e868254611e23565b905583518381528560208201528233917fc3d58168c5ae7397731d063d5bbf3d657854427343f4c083240f7aacaa2d0f62873392a48d333b610fbd575b5050505050505060065489526007602052858920938051938411610f9257610dd38554611fb0565b828111610f4d575b506020918411600114610eeb578991849182610ede575b505060001991921b9260031b1c19161790555b600654936127108411610e7757508173ffffffffffffffffffffffffffffffffffffffff917fffffffffffffffffffffffff0000000000000000000000000000000000000000935195610e57876119ad565b3387526020870195865287526020528520935116915160a01b1617905580f35b602a906020608494519362461bcd60e51b85528401528201527f455243323938313a20726f79616c7479206665652077696c6c2065786365656460448201527f2073616c655072696365000000000000000000000000000000000000000000006064820152fd5b015191506000198b610df2565b90601f198493941691858b5283828c20938c5b87828210610f3457505010610f1b575b505050811b019055610e05565b015160001960f88460031b161c19169055888080610f0e565b8486015187559095019460209485019487935001610efe565b858b5260208b208380870160051c82019260208810610f89575b0160051c019084905b828110610f7e575050610ddb565b8c8155018490610f70565b92508192610f67565b888a6041887f4e487b7100000000000000000000000000000000000000000000000000000000835252fd5b611015839260209651978896879586957ff23a6e61000000000000000000000000000000000000000000000000000000009c8d885233908801528601526044850152606484015260a0608484015260a483019061196d565b0391335af18b918161118d575b506110f457505081611032611efe565b6308c379a0146110c0575b61104e575b848a87818c818d610dab565b61052f85875191829162461bcd60e51b8352820160809060208152603460208201527f455243313135353a207472616e7366657220746f206e6f6e2d4552433131353560408201527f526563656976657220696d706c656d656e74657200000000000000000000000060608201520190565b6110c8611f1c565b806110d3575061103d565b8661052f6020928c8b5194859462461bcd60e51b865285015283019061196d565b7fffffffff0000000000000000000000000000000000000000000000000000000016146110425761052f85875191829162461bcd60e51b8352820160809060208152602860208201527f455243313135353a204552433131353552656365697665722072656a6563746560408201527f6420746f6b656e7300000000000000000000000000000000000000000000000060608201520190565b6111a691925060203d8111610630576106218183611a14565b908c611022565b60848860218d60208d519362461bcd60e51b85528401528201527f455243313135353a206d696e7420746f20746865207a65726f2061646472657360448201527f73000000000000000000000000000000000000000000000000000000000000006064820152fd5b90508601518c610cd3565b8c90601f19879416600283527f405787fa12a823e0f2b7631cc41b3ba8828b3321ca811111fa75cd3aa3bb5ace925b8181106112845750831161126b575b5050811b01600255610ce6565b88015160001960f88460031b161c191690558c8061125e565b8a83015184558895909301926020928301920161124f565b60028c527f405787fa12a823e0f2b7631cc41b3ba8828b3321ca811111fa75cd3aa3bb5ace8480840160051c820192602085106112f6575b0160051c019085905b8281106112eb575050610cbe565b8d81550185906112dd565b925081926112d4565b888a6011887f4e487b7100000000000000000000000000000000000000000000000000000000835252fd5b8780fd5b508290346102fa576003199160a083360112610a515761134c611922565b9261135561194a565b9367ffffffffffffffff9360443585811161132a576113779036908301611a4f565b90606435868111610c215761138f9036908301611a4f565b95608435908111610c21576113a79036908301611af4565b9373ffffffffffffffffffffffffffffffffffffffff8094169333851480156115f4575b6113d490611cd0565b6113e18451895114611e30565b8816946113ef861515611d41565b895b8a85518210156114755790896114698a6114709461141a85611413818d611c8d565b5195611c8d565b51938082526020908282528383208d84528252858d858520549061144083831015611db2565b838652858552868620908652845203848420558252818152828220908d83525220918254611e23565b9055611c4f565b6113f1565b50509094939596929197848789517f4a39dc06d4c0dbc64b70af90fd698a233a518aa5d07e595d983b8c0526c8f7fb3391806114b28a8a83611ea1565b0390a43b6114be578880f35b865194859384937fbc197c810000000000000000000000000000000000000000000000000000000098898652338c87015260248601526044850160a0905260a4850161150991611b12565b8285820301606486015261151c91611b12565b9083820301608484015261152f9161196d565b0381885a94602095f18591816115d4575b506115a65750506001611551611efe565b6308c379a01461156f575b6104bd5750505b81808080808080808880f35b611577611f1c565b80611582575061155c565b905061052f91602094505193849362461bcd60e51b8552840152602483019061196d565b7fffffffff000000000000000000000000000000000000000000000000000000001603610596575050611563565b6115ed91925060203d8111610630576106218183611a14565b9086611540565b50848a5260016020908152878b20338c529052868a205460ff166113cb565b509190346108a557816003193601126108a55760243590833581528360205282812090835191611642836119ad565b549073ffffffffffffffffffffffffffffffffffffffff928383169283825260a01c602082015291156116d5575b6bffffffffffffffffffffffff602083015116938481029481860414901517156116a95750518351911681526127109091046020820152f35b806011877f4e487b71000000000000000000000000000000000000000000000000000000006024945252fd5b905083516116e2816119ad565b600354838116825260a01c602082015290611670565b5082346102fa5760209182600319360112610a51573583526007825280832081519384918181549061172982611fb0565b928386526001928884821691826000146117a6575050600114611768575b8588610b8289611759848a0385611a14565b5192828493845283019061196d565b87945081939291528383205b82841061178e5750505082010181611759610b8288611747565b8054848a018601528895508794909301928101611774565b7fffffffffffffffffffffffffffffffffffffffffffffffffffffffffffffff00168882015294151560051b870190940194508593506117599250610b829150899050611747565b508290346102fa5760206003193601126102fa5735907fffffffff0000000000000000000000000000000000000000000000000000000082168092036102fa57602092507f01ffc9a70000000000000000000000000000000000000000000000000000000082149182156118c8575b821561189e575b8215611874575b50519015158152f35b7f0e89341c000000000000000000000000000000000000000000000000000000001491508361186b565b7fd9b67a260000000000000000000000000000000000000000000000000000000081149250611864565b7f2a55205a000000000000000000000000000000000000000000000000000000008114925061185d565b8284346101f457806003193601126101f45760209061191b611912611922565b60243590611bab565b9051908152f35b6004359073ffffffffffffffffffffffffffffffffffffffff8216820361194557565b600080fd5b6024359073ffffffffffffffffffffffffffffffffffffffff8216820361194557565b919082519283825260005b848110611999575050601f19601f8460006020809697860101520116010190565b602081830181015184830182015201611978565b6040810190811067ffffffffffffffff8211176119c957604052565b7f4e487b7100000000000000000000000000000000000000000000000000000000600052604160045260246000fd5b6020810190811067ffffffffffffffff8211176119c957604052565b90601f601f19910116810190811067ffffffffffffffff8211176119c957604052565b67ffffffffffffffff81116119c95760051b60200190565b81601f8201121561194557803591611a6683611a37565b92611a746040519485611a14565b808452602092838086019260051b820101928311611945578301905b828210611a9e575050505090565b81358152908301908301611a90565b92919267ffffffffffffffff82116119c95760405191611ad76020601f19601f8401160184611a14565b829481845281830111611945578281602093846000960137010152565b9080601f8301121561194557816020611b0f93359101611aad565b90565b90815180825260208080930193019160005b828110611b32575050505090565b835185529381019392810192600101611b24565b73ffffffffffffffffffffffffffffffffffffffff600554163303611b6757565b606460405162461bcd60e51b815260206004820152602060248201527f4f776e61626c653a2063616c6c6572206973206e6f7420746865206f776e65726044820152fd5b73ffffffffffffffffffffffffffffffffffffffff16908115611be557600052600060205260406000209060005260205260406000205490565b608460405162461bcd60e51b815260206004820152602a60248201527f455243313135353a2061646472657373207a65726f206973206e6f742061207660448201527f616c6964206f776e6572000000000000000000000000000000000000000000006064820152fd5b6000198114611c5e5760010190565b7f4e487b7100000000000000000000000000000000000000000000000000000000600052601160045260246000fd5b8051821015611ca15760209160051b010190565b7f4e487b7100000000000000000000000000000000000000000000000000000000600052603260045260246000fd5b15611cd757565b608460405162461bcd60e51b815260206004820152602e60248201527f455243313135353a2063616c6c6572206973206e6f7420746f6b656e206f776e60448201527f6572206f7220617070726f7665640000000000000000000000000000000000006064820152fd5b15611d4857565b608460405162461bcd60e51b815260206004820152602560248201527f455243313135353a207472616e7366657220746f20746865207a65726f20616460448201527f64726573730000000000000000000000000000000000000000000000000000006064820152fd5b15611db957565b608460405162461bcd60e51b815260206004820152602a60248201527f455243313135353a20696e73756666696369656e742062616c616e636520666f60448201527f72207472616e73666572000000000000000000000000000000000000000000006064820152fd5b91908201809211611c5e57565b15611e3757565b608460405162461bcd60e51b815260206004820152602860248201527f455243313135353a2069647320616e6420616d6f756e7473206c656e6774682060448201527f6d69736d617463680000000000000000000000000000000000000000000000006064820152fd5b9091611eb8611b0f93604084526040840190611b12565b916020818403910152611b12565b9081602091031261194557517fffffffff00000000000000000000000000000000000000000000000000000000811681036119455790565b60009060033d11611f0b57565b905060046000803e60005160e01c90565b600060443d10611b0f5760405160031991823d016004833e815167ffffffffffffffff918282113d602484011117611f7a57818401948551938411611f82573d85010160208487010111611f7a5750611b0f92910160200190611a14565b949350505050565b50949350505050565b60405190611f98826119ad565b60018252602082016020368237825115611ca1575290565b90600182811c92168015611ff9575b6020831014611fca57565b7f4e487b7100000000000000000000000000000000000000000000000000000000600052602260045260246000fd5b91607f1691611fbf565b1561200a57565b608460405162461bcd60e51b815260206004820152602360248201527f455243313135353a206275726e2066726f6d20746865207a65726f206164647260448201527f65737300000000000000000000000000000000000000000000000000000000006064820152fd5b1561207b57565b608460405162461bcd60e51b8152602060048201526024808201527f455243313135353a206275726e20616d6f756e7420657863656564732062616c60448201527f616e6365000000000000000000000000000000000000000000000000000000006064820152fdfea2646970667358221220414a2ac0866a398095739be60ca762168ed6b0fe8772d1bda39aca374ee79d7364736f6c63430008110033",
  "linkReferences": {},
  "deployedLinkReferences": {}
}