{
  "_format": "hh-sol-artifact-1",
  "contractName": "ERC721Marketplace",
  "sourceName": "contracts/ERC721Marketplace.sol",
  "abi": [
    {
      "inputs": [
        {
          "internalType": "string",
          "name": "marketplaceName",
          "type": "string"
        },
        {
          "internalType": "string",
          "name": "symbol",
          "type": "string"
        }
      ],
      "stateMutability": "nonpayable",
      "type": "constructor"
    },
    {
      "anonymous": false,
      "inputs": [
        {
          "indexed": true,
          "internalType": "address",
          "name": "owner",
          "type": "address"
        },
        {
          "indexed": true,
          "internalType": "address",
          "name": "approved",
          "type": "address"
        },
        {
          "indexed": true,
          "internalType": "uint256",
          "name": "tokenId",
          "type": "uint256"
        }
      ],
      "name": "Approval",
      "type": "event"
    },
    {
      "anonymous": false,
      "inputs": [
        {
          "indexed": true,
          "internalType": "address",
          "name": "owner",
          "type": "address"
        },
        {
          "indexed": true,
          "internalType": "address",
          "name": "operator",
          "type": "address"
        },
        {
          "indexed": false,
          "internalType": "bool",
          "name": "approved",
          "type": "bool"
        }
      ],
      "name": "ApprovalForAll",
      "type": "event"
    },
    {
      "anonymous": false,
      "inputs": [
        {
          "indexed": true,
          "internalType": "address",
          "name": "previousOwner",
          "type": "address"
        },
        {
          "indexed": true,
          "internalType": "address",
          "name": "newOwner",
          "type": "address"
        }
      ],
      "name": "OwnershipTransferred",
      "type": "event"
    },
    {
      "anonymous": false,
      "inputs": [
        {
          "indexed": true,
          "internalType": "address",
          "name": "from",
          "type": "address"
        },
        {
          "indexed": true,
          "internalType": "address",
          "name": "to",
          "type": "address"
        },
        {
          "indexed": true,
          "internalType": "uint256",
          "name": "tokenId",
          "type": "uint256"
        }
      ],
      "name": "Transfer",
      "type": "event"
    },
    {
      "inputs": [
        {
          "internalType": "address",
          "name": "to",
          "type": "address"
        },
        {
          "internalType": "uint256",
          "name": "tokenId",
          "type": "uint256"
        }
      ],
      "name": "approve",
      "outputs": [],
      "stateMutability": "nonpayable",
      "type": "function"
    },
    {
      "inputs": [
        {
          "internalType": "address",
          "name": "owner",
          "type": "address"
        }
      ],
      "name": "balanceOf",
      "outputs": [
        {
          "internalType": "uint256",
          "name": "",
          "type": "uint256"
        }
      ],
      "stateMutability": "view",
      "type": "function"
    },
    {
      "inputs": [
        {
          "internalType": "uint256",
          "name": "tokenId",
          "type": "uint256"
        }
      ],
      "name": "burn",
      "outputs": [],
      "stateMutability": "nonpayable",
      "type": "function"
    },
    {
      "inputs": [
        {
          "internalType": "uint256",
          "name": "tokenId",
          "type": "uint256"
        }
      ],
      "name": "getApproved",
      "outputs": [
        {
          "internalType": "address",
          "name": "",
          "type": "address"
        }
      ],
      "stateMutability": "view",
      "type": "function"
    },
    {
      "inputs": [
        {
          "internalType": "address",
          "name": "owner",
          "type": "address"
        },
        {
          "internalType": "address",
          "name": "operator",
          "type": "address"
        }
      ],
      "name": "isApprovedForAll",
      "outputs": [
        {
          "internalType": "bool",
          "name": "",
          "type": "bool"
        }
      ],
      "stateMutability": "view",
      "type": "function"
    },
    {
      "inputs": [],
      "name": "lastID",
      "outputs": [
        {
          "internalType": "uint256",
          "name": "",
          "type": "uint256"
        }
      ],
      "stateMutability": "view",
      "type": "function"
    },
    {
      "inputs": [],
      "name": "name",
      "outputs": [
        {
          "internalType": "string",
          "name": "",
          "type": "string"
        }
      ],
      "stateMutability": "view",
      "type": "function"
    },
    {
      "inputs": [
        {
          "internalType": "string",
          "name": "_tokenURI",
          "type": "string"
        },
        {
          "internalType": "uint96",
          "name": "_royaltyNumerator",
          "type": "uint96"
        }
      ],
      "name": "nftMint",
      "outputs": [],
      "stateMutability": "nonpayable",
      "type": "function"
    },
    {
      "inputs": [],
      "name": "owner",
      "outputs": [
        {
          "internalType": "address",
          "name": "",
          "type": "address"
        }
      ],
      "stateMutability": "view",
      "type": "function"
    },
    {
      "inputs": [
        {
          "internalType": "uint256",
          "name": "tokenId",
          "type": "uint256"
        }
      ],
      "name": "ownerOf",
      "outputs": [
        {
          "internalType": "address",
          "name": "",
          "type": "address"
        }
      ],
      "stateMutability": "view",
      "type": "function"
    },
    {
      "inputs": [],
      "name": "renounceOwnership",
      "outputs": [],
      "stateMutability": "nonpayable",
      "type": "function"
    },
    {
      "inputs": [
        {
          "internalType": "uint256",
          "name": "_tokenId",
          "type": "uint256"
        },
        {
          "internalType": "uint256",
          "name": "_salePrice",
          "type": "uint256"
        }
      ],
      "name": "royaltyInfo",
      "outputs": [
        {
          "internalType": "address",
          "name": "",
          "type": "address"
        },
        {
          "internalType": "uint256",
          "name": "",
          "type": "uint256"
        }
      ],
      "stateMutability": "view",
      "type": "function"
    },
    {
      "inputs": [
        {
          "internalType": "address",
          "name": "from",
          "type": "address"
        },
        {
          "internalType": "address",
          "name": "to",
          "type": "address"
        },
        {
          "internalType": "uint256",
          "name": "tokenId",
          "type": "uint256"
        }
      ],
      "name": "safeTransferFrom",
      "outputs": [],
      "stateMutability": "nonpayable",
      "type": "function"
    },
    {
      "inputs": [
        {
          "internalType": "address",
          "name": "from",
          "type": "address"
        },
        {
          "internalType": "address",
          "name": "to",
          "type": "address"
        },
        {
          "internalType": "uint256",
          "name": "tokenId",
          "type": "uint256"
        },
        {
          "internalType": "bytes",
          "name": "data",
          "type": "bytes"
        }
      ],
      "name": "safeTransferFrom",
      "outputs": [],
      "stateMutability": "nonpayable",
      "type": "function"
    },
    {
      "inputs": [
        {
          "internalType": "address",
          "name": "operator",
          "type": "address"
        },
        {
          "internalType": "bool",
          "name": "approved",
          "type": "bool"
        }
      ],
      "name": "setApprovalForAll",
      "outputs": [],
      "stateMutability": "nonpayable",
      "type": "function"
    },
    {
      "inputs": [
        {
          "internalType": "bytes4",
          "name": "interfaceId",
          "type": "bytes4"
        }
      ],
      "name": "supportsInterface",
      "outputs": [
        {
          "internalType": "bool",
          "name": "",
          "type": "bool"
        }
      ],
      "stateMutability": "view",
      "type": "function"
    },
    {
      "inputs": [],
      "name": "symbol",
      "outputs": [
        {
          "internalType": "string",
          "name": "",
          "type": "string"
        }
      ],
      "stateMutability": "view",
      "type": "function"
    },
    {
      "inputs": [
        {
          "internalType": "uint256",
          "name": "tokenId",
          "type": "uint256"
        }
      ],
      "name": "tokenURI",
      "outputs": [
        {
          "internalType": "string",
          "name": "",
          "type": "string"
        }
      ],
      "stateMutability": "view",
      "type": "function"
    },
    {
      "inputs": [
        {
          "internalType": "address",
          "name": "from",
          "type": "address"
        },
        {
          "internalType": "address",
          "name": "to",
          "type": "address"
        },
        {
          "internalType": "uint256",
          "name": "tokenId",
          "type": "uint256"
        }
      ],
      "name": "transferFrom",
      "outputs": [],
      "stateMutability": "nonpayable",
      "type": "function"
    },
    {
      "inputs": [
        {
          "internalType": "address",
          "name": "newOwner",
          "type": "address"
        }
      ],
      "name": "transferOwnership",
      "outputs": [],
      "stateMutability": "nonpayable",
      "type": "function"
    }
  ],
  "bytecode": "0x608060405234620003675762001fa5803803806200001d816200036c565b9283398101604082820312620003675781516001600160401b0392908381116200036757826200004f91830162000392565b906020928382015185811162000367576200006b920162000392565b92815181811162000351576000938454916001948584811c9416801562000346575b8385101462000332578190601f94858111620002df575b5083908583116001146200027b5788926200026f575b5050600019600383901b1c191690851b1785555b85519283116200025b5783548481811c9116801562000250575b828210146200023c57828111620001f4575b50809183116001146200018e575083948293949262000182575b5050600019600383901b1c191690821b1790555b60088054336001600160a01b031982168117909255604051926001600160a01b03909116907f8be0079c531659141344cd1fd0a4f28419497f9722a3daafe3b4186f6b6457e09080a333600b55611ba09081620004058239f35b01519050388062000114565b90601f198316958486528286209286905b888210620001dc5750508385969710620001c2575b505050811b01905562000128565b015160001960f88460031b161c19169055388080620001b4565b8087859682949686015181550195019301906200019f565b8486528186208380860160051c82019284871062000232575b0160051c019085905b82811062000226575050620000fa565b87815501859062000216565b925081926200020d565b634e487b7160e01b86526022600452602486fd5b90607f1690620000e8565b634e487b7160e01b85526041600452602485fd5b015190503880620000ba565b8880528489208894509190601f1984168a5b87828210620002c85750508411620002ae575b505050811b018555620000ce565b015160001960f88460031b161c19169055388080620002a0565b8385015186558b979095019493840193016200028d565b9091508780528388208580850160051c82019286861062000328575b918991869594930160051c01915b82811062000319575050620000a4565b8a815585945089910162000309565b92508192620002fb565b634e487b7160e01b87526022600452602487fd5b93607f16936200008d565b634e487b7160e01b600052604160045260246000fd5b600080fd5b6040519190601f01601f191682016001600160401b038111838210176200035157604052565b919080601f84011215620003675782516001600160401b0381116200035157602090620003c8601f8201601f191683016200036c565b92818452828287010111620003675760005b818110620003f057508260009394955001015290565b8581018301518482018401528201620003da56fe6080604081815260048036101561001557600080fd5b600092833560e01c90816301ffc9a7146111365750806306fdde031461108e578063081812fc14611059578063095ea7b314610ead5780631044f2da14610a8a57806323b872dd14610a655780632a55205a1461098057806342842e0e1461094c57806342966c68146107e85780636352211e146107ab57806370a08231146106f4578063715018a6146106715780638da5cb5b1461063c57806395d89b411461053b578063a22cb46514610441578063b88d4fde146103b3578063c87b56dd14610280578063e31a9d9214610261578063e985e9c5146102025763f2fde38b146100ff57600080fd5b346101fe5760206003193601126101fe57610118611264565b9061012161140a565b73ffffffffffffffffffffffffffffffffffffffff809216928315610195575050600854827fffffffffffffffffffffffff0000000000000000000000000000000000000000821617600855167f8be0079c531659141344cd1fd0a4f28419497f9722a3daafe3b4186f6b6457e08380a380f35b906020608492519162461bcd60e51b8352820152602660248201527f4f776e61626c653a206e6577206f776e657220697320746865207a65726f206160448201527f64647265737300000000000000000000000000000000000000000000000000006064820152fd5b8280fd5b50503461025d578060031936011261025d5760ff81602093610222611264565b61022a61128c565b73ffffffffffffffffffffffffffffffffffffffff91821683526005875283832091168252855220549151911615158152f35b5080fd5b50503461025d578160031936011261025d576020906009549051908152f35b5090346101fe57602091826003193601126103af57356102cb6102c682600052600260205273ffffffffffffffffffffffffffffffffffffffff60406000205416151590565b61146f565b8352600a82528083208151938491818154906102e6826114ec565b92838652600192888482169182600014610367575050600114610329575b858861032589610316848a0385611316565b51928284938452830190611206565b0390f35b87945081939291528383205b82841061034f575050508201018161031661032538610304565b8054848a018601528895508794909301928101610335565b7fffffffffffffffffffffffffffffffffffffffffffffffffffffffffffffff00168882015294151560051b8701909401945085935061031692506103259150389050610304565b8380fd5b83823461025d57608060031936011261025d576103ce611264565b906103d761128c565b916044356064359367ffffffffffffffff851161043d573660238601121561043d576104126104359486602461043a98369301359101611391565b926104256104208433611679565b611596565b610430838383611765565b611a93565b611607565b80f35b8580fd5b5090346101fe57806003193601126101fe5761045b611264565b90602435918215158093036105375773ffffffffffffffffffffffffffffffffffffffff16928333146104f5575033845260056020528084208385526020528084207fffffffffffffffffffffffffffffffffffffffffffffffffffffffffffffff0081541660ff8416179055519081527f17307eab39ab6107e8899845ad3d59bd9653f200f220920489ca2b5937696c3160203392a380f35b6020606492519162461bcd60e51b8352820152601960248201527f4552433732313a20617070726f766520746f2063616c6c6572000000000000006044820152fd5b8480fd5b50503461025d578160031936011261025d5780519082600180549161055f836114ec565b808652928281169081156105f6575060011461059a575b50505061058882610325940383611316565b51918291602083526020830190611206565b94508085527fb10e2d527612073b26eecdfd717e6a320cf44b4afac2b0732d9fcbe2b7fa0cf65b8286106105de575050506105888260206103259582010194610576565b805460208787018101919091529095019481016105c1565b6103259750869350602092506105889491507fffffffffffffffffffffffffffffffffffffffffffffffffffffffffffffff001682840152151560051b82010194610576565b50503461025d578160031936011261025d5760209073ffffffffffffffffffffffffffffffffffffffff600854169051908152f35b83346106f157806003193601126106f15761068a61140a565b8073ffffffffffffffffffffffffffffffffffffffff6008547fffffffffffffffffffffffff00000000000000000000000000000000000000008116600855167f8be0079c531659141344cd1fd0a4f28419497f9722a3daafe3b4186f6b6457e08280a380f35b80fd5b5082903461025d57602060031936011261025d5773ffffffffffffffffffffffffffffffffffffffff610725611264565b169081156107425760208480858581526003845220549051908152f35b608490602085519162461bcd60e51b8352820152602960248201527f4552433732313a2061646472657373207a65726f206973206e6f74206120766160448201527f6c6964206f776e657200000000000000000000000000000000000000000000006064820152fd5b5091346106f15760206003193601126106f1575073ffffffffffffffffffffffffffffffffffffffff6107e0602093356114ba565b915191168152f35b5082903461025d57602090816003193601126101fe5780359061080a826114ba565b73ffffffffffffffffffffffffffffffffffffffff9081339116036108e45791848096949260079461083b846114ba565b50610845846114ba565b918484528552868320917fffffffffffffffffffffffff0000000000000000000000000000000000000000928381541690551690818352600385528683207fffffffffffffffffffffffffffffffffffffffffffffffffffffffffffffffff8154019055838352600285528683209081541690557fddf252ad1be2c89b69c2b068fc378daa952ba7f163c4a11628f55a4df523b3ef8280a45281205580f35b6084828588519162461bcd60e51b8352820152602360248201527f4552433732314275726e61626c653a2063616c6c6572206973206e6f74206f7760448201527f6e657200000000000000000000000000000000000000000000000000000000006064820152fd5b50503461025d5761043561043a91610963366113c8565b91925192610970846112fa565b8684526104256104208433611679565b5091346106f157816003193601126106f15760243590833581526007602052828120908351916109af836112af565b549073ffffffffffffffffffffffffffffffffffffffff928383169283825260a01c60208201529115610a42575b6bffffffffffffffffffffffff60208301511693848102948186041490151715610a165750518351911681526127109091046020820152f35b806011877f4e487b71000000000000000000000000000000000000000000000000000000006024945252fd5b90508351610a4f816112af565b600654838116825260a01c6020820152906109dd565b83346106f15761043a610a77366113c8565b91610a856104208433611679565b611765565b50346101fe57816003193601126101fe5780359167ffffffffffffffff90818411610537573660238501121561053757610ace602494369086818701359101611391565b918435936bffffffffffffffffffffffff8516809503610ea95760095493600194858101809111610e7e57806009558852602092600a8452848920918051918211610e53578190610b1f84546114ec565b601f8111610e03575b508590601f8311600114610d69578b92610d5e575b50507fffffffffffffffffffffffffffffffffffffffffffffffffffffffffffffffff82881b9260031b1c19161790555b60095493835190610b7e826112fa565b8882523315610d1e57610c679161043591610bc5610bbf89600052600260205273ffffffffffffffffffffffffffffffffffffffff60406000205416151590565b15611b1f565b610bf5610bbf89600052600260205273ffffffffffffffffffffffffffffffffffffffff60406000205416151590565b338b5260038652868b20908154019055868a5260028552858a20967fffffffffffffffffffffffff000000000000000000000000000000000000000097338982541617905580338c7fddf252ad1be2c89b69c2b068fc378daa952ba7f163c4a11628f55a4df523b3ef8180a4336118cf565b600954956127108611610cb857505090600773ffffffffffffffffffffffffffffffffffffffff92825196610c9b886112af565b3388528188019687528852528520935116915160a01b1617905580f35b602a9192608494519362461bcd60e51b85528401528201527f455243323938313a20726f79616c7479206665652077696c6c2065786365656460448201527f2073616c655072696365000000000000000000000000000000000000000000006064820152fd5b606483858a8189519362461bcd60e51b85528401528201527f4552433732313a206d696e7420746f20746865207a65726f20616464726573736044820152fd5b015190503880610b3d565b907fffffffffffffffffffffffffffffffffffffffffffffffffffffffffffffffe089941691858d52878d20928d5b89828210610ded5750508411610db6575b505050811b019055610b6e565b01517fffffffffffffffffffffffffffffffffffffffffffffffffffffffffffffffff60f88460031b161c19169055388080610da9565b8385015186558c97909501949384019301610d98565b909150838b52858b20601f840160051c810191878510610e49575b84939291601f8b920160051c01915b828110610e3b575050610b28565b8d81558594508a9101610e2d565b9091508190610e1e565b888a6041867f4e487b7100000000000000000000000000000000000000000000000000000000835252fd5b87896011857f4e487b7100000000000000000000000000000000000000000000000000000000835252fd5b8680fd5b50346101fe57816003193601126101fe57610ec6611264565b906024359273ffffffffffffffffffffffffffffffffffffffff918280610eec876114ba565b16941693808514610ff057803314908115610fd1575b5015610f69578486526020528420827fffffffffffffffffffffffff0000000000000000000000000000000000000000825416179055610f41836114ba565b167f8c5be1e5ebec7d5bd14f71427d1e84f3dd0314c0f7b2291e5b200ac8c7c3b9258480a480f35b6020608492519162461bcd60e51b8352820152603d60248201527f4552433732313a20617070726f76652063616c6c6572206973206e6f7420746f60448201527f6b656e206f776e6572206f7220617070726f76656420666f7220616c6c0000006064820152fd5b90508652600560205281862033875260205260ff828720541638610f02565b506020608492519162461bcd60e51b8352820152602160248201527f4552433732313a20617070726f76616c20746f2063757272656e74206f776e6560448201527f72000000000000000000000000000000000000000000000000000000000000006064820152fd5b5091346106f15760206003193601126106f1575073ffffffffffffffffffffffffffffffffffffffff6107e06020933561153f565b50503461025d578160031936011261025d578051908280546110af816114ec565b808552916001918083169081156105f657506001146110da5750505061058882610325940383611316565b80809650527f290decd9548b62a8d60345a988386fc84ba6bc95484008f6362f93160ef3e5635b82861061111e575050506105888260206103259582010194610576565b80546020878701810191909152909501948101611101565b925050346101fe5760206003193601126101fe57357fffffffff0000000000000000000000000000000000000000000000000000000081168091036101fe57602092507f01ffc9a70000000000000000000000000000000000000000000000000000000081149081156111dc575b81156111b2575b5015158152f35b7f80ac58cd00000000000000000000000000000000000000000000000000000000915014386111ab565b7f2a55205a00000000000000000000000000000000000000000000000000000000811491506111a4565b919082519283825260005b8481106112505750507fffffffffffffffffffffffffffffffffffffffffffffffffffffffffffffffe0601f8460006020809697860101520116010190565b602081830181015184830182015201611211565b6004359073ffffffffffffffffffffffffffffffffffffffff8216820361128757565b600080fd5b6024359073ffffffffffffffffffffffffffffffffffffffff8216820361128757565b6040810190811067ffffffffffffffff8211176112cb57604052565b7f4e487b7100000000000000000000000000000000000000000000000000000000600052604160045260246000fd5b6020810190811067ffffffffffffffff8211176112cb57604052565b90601f7fffffffffffffffffffffffffffffffffffffffffffffffffffffffffffffffe0910116810190811067ffffffffffffffff8211176112cb57604052565b67ffffffffffffffff81116112cb57601f017fffffffffffffffffffffffffffffffffffffffffffffffffffffffffffffffe01660200190565b92919261139d82611357565b916113ab6040519384611316565b829481845281830111611287578281602093846000960137010152565b60031960609101126112875773ffffffffffffffffffffffffffffffffffffffff90600435828116810361128757916024359081168103611287579060443590565b73ffffffffffffffffffffffffffffffffffffffff60085416330361142b57565b606460405162461bcd60e51b815260206004820152602060248201527f4f776e61626c653a2063616c6c6572206973206e6f7420746865206f776e65726044820152fd5b1561147657565b606460405162461bcd60e51b815260206004820152601860248201527f4552433732313a20696e76616c696420746f6b656e20494400000000000000006044820152fd5b600052600260205273ffffffffffffffffffffffffffffffffffffffff604060002054166114e981151561146f565b90565b90600182811c92168015611535575b602083101461150657565b7f4e487b7100000000000000000000000000000000000000000000000000000000600052602260045260246000fd5b91607f16916114fb565b61156f6102c682600052600260205273ffffffffffffffffffffffffffffffffffffffff60406000205416151590565b600052600460205273ffffffffffffffffffffffffffffffffffffffff6040600020541690565b1561159d57565b608460405162461bcd60e51b815260206004820152602d60248201527f4552433732313a2063616c6c6572206973206e6f7420746f6b656e206f776e6560448201527f72206f7220617070726f766564000000000000000000000000000000000000006064820152fd5b1561160e57565b60405162461bcd60e51b815260206004820152603260248201527f4552433732313a207472616e7366657220746f206e6f6e20455243373231526560448201527f63656976657220696d706c656d656e74657200000000000000000000000000006064820152608490fd5b9073ffffffffffffffffffffffffffffffffffffffff808061169a846114ba565b169316918383149384156116cd575b5083156116b7575b50505090565b6116c39192935061153f565b16143880806116b1565b909350600052600560205260406000208260005260205260ff6040600020541692386116a9565b156116fb57565b608460405162461bcd60e51b815260206004820152602560248201527f4552433732313a207472616e736665722066726f6d20696e636f72726563742060448201527f6f776e65720000000000000000000000000000000000000000000000000000006064820152fd5b9061179a91611773846114ba565b9173ffffffffffffffffffffffffffffffffffffffff9384938480941694859116146116f4565b1691821561186657816117b7916117b0866114ba565b16146116f4565b7fddf252ad1be2c89b69c2b068fc378daa952ba7f163c4a11628f55a4df523b3ef60008481526004602052604081207fffffffffffffffffffffffff0000000000000000000000000000000000000000908181541690558382526003602052604082207fffffffffffffffffffffffffffffffffffffffffffffffffffffffffffffffff81540190558482526040822060018154019055858252600260205284604083209182541617905580a4565b608460405162461bcd60e51b8152602060048201526024808201527f4552433732313a207472616e7366657220746f20746865207a65726f2061646460448201527f72657373000000000000000000000000000000000000000000000000000000006064820152fd5b9192600092909190803b15611a895761194b9460405180927f150b7a020000000000000000000000000000000000000000000000000000000094858352336004840152876024840152604483015260806064830152818773ffffffffffffffffffffffffffffffffffffffff8260209b8c976084830190611206565b0393165af1849181611a31575b50611a08575050503d600014611a00573d61197281611357565b906119806040519283611316565b81528091833d92013e5b805191826119fd5760405162461bcd60e51b815260206004820152603260248201527f4552433732313a207472616e7366657220746f206e6f6e20455243373231526560448201527f63656976657220696d706c656d656e74657200000000000000000000000000006064820152608490fd5b01fd5b50606061198a565b7fffffffff00000000000000000000000000000000000000000000000000000000161492509050565b9091508581813d8311611a82575b611a498183611316565b8101031261053757517fffffffff0000000000000000000000000000000000000000000000000000000081168103610537579038611958565b503d611a3f565b5050915050600190565b9293600093909291803b15611b145794849161194b96604051809481937f150b7a02000000000000000000000000000000000000000000000000000000009788845233600485015273ffffffffffffffffffffffffffffffffffffffff80921660248501526044840152608060648401528260209b8c976084830190611206565b505050915050600190565b15611b2657565b606460405162461bcd60e51b815260206004820152601c60248201527f4552433732313a20746f6b656e20616c7265616479206d696e746564000000006044820152fdfea2646970667358221220b29f3f8bf4598cf843e1d5055e938ea3ce0efe3c5ed0472372cd1f7bcc5c21bf64736f6c63430008110033",
  "linkReferences": {},
  "deployedLinkReferences": {}
}