{
  "_format": "hh-sol-artifact-1",
  "contractName": "Escrow",
  "sourceName": "contracts/Escrow.sol",
  "abi": [
    {
      "inputs": [
        {
          "internalType": "contract IMarketManagement",
          "name": "_fm",
          "type": "address"
        },
        {
          "internalType": "uint256",
          "name": "_minimumBid",
          "type": "uint256"
        },
        {
          "internalType": "uint256",
          "name": "minBidIncrementPercent",
          "type": "uint256"
        },
        {
          "internalType": "uint256",
          "name": "minBidIncrement",
          "type": "uint256"
        },
        {
          "internalType": "uint256",
          "name": "_minSalePrice",
          "type": "uint256"
        },
        {
          "internalType": "address",
          "name": "_owner",
          "type": "address"
        }
      ],
      "stateMutability": "nonpayable",
      "type": "constructor"
    },
    {
      "anonymous": false,
      "inputs": [
        {
          "indexed": true,
          "internalType": "address",
          "name": "_seller",
          "type": "address"
        },
        {
          "indexed": true,
          "internalType": "uint256",
          "name": "_tokenID",
          "type": "uint256"
        },
        {
          "indexed": false,
          "internalType": "string",
          "name": "orderId",
          "type": "string"
        }
      ],
      "name": "AuctionCancelled",
      "type": "event"
    },
    {
      "anonymous": false,
      "inputs": [
        {
          "indexed": true,
          "internalType": "address",
          "name": "_seller",
          "type": "address"
        },
        {
          "indexed": true,
          "internalType": "address",
          "name": "_bidder",
          "type": "address"
        },
        {
          "indexed": false,
          "internalType": "string",
          "name": "orderId",
          "type": "string"
        },
        {
          "indexed": false,
          "internalType": "uint256",
          "name": "_tokenId",
          "type": "uint256"
        },
        {
          "indexed": false,
          "internalType": "uint256",
          "name": "price",
          "type": "uint256"
        },
        {
          "indexed": false,
          "internalType": "uint256",
          "name": "expTime",
          "type": "uint256"
        }
      ],
      "name": "BidPlaced",
      "type": "event"
    },
    {
      "anonymous": false,
      "inputs": [
        {
          "indexed": true,
          "internalType": "address",
          "name": "_fundManager",
          "type": "address"
        },
        {
          "indexed": true,
          "internalType": "uint256",
          "name": "_amtCredited",
          "type": "uint256"
        }
      ],
      "name": "EarningsCreditedMarket",
      "type": "event"
    },
    {
      "anonymous": false,
      "inputs": [
        {
          "indexed": true,
          "internalType": "address",
          "name": "_seller",
          "type": "address"
        },
        {
          "indexed": true,
          "internalType": "address",
          "name": "_buyer",
          "type": "address"
        },
        {
          "indexed": true,
          "internalType": "address",
          "name": "_contract",
          "type": "address"
        },
        {
          "indexed": false,
          "internalType": "string",
          "name": "_orderID",
          "type": "string"
        },
        {
          "indexed": false,
          "internalType": "uint256",
          "name": "_tokenIdPurchased",
          "type": "uint256"
        },
        {
          "indexed": false,
          "internalType": "uint256",
          "name": "_amountBought",
          "type": "uint256"
        },
        {
          "indexed": false,
          "internalType": "uint256",
          "name": "_cost",
          "type": "uint256"
        },
        {
          "indexed": false,
          "internalType": "uint256",
          "name": "_totalListed",
          "type": "uint256"
        }
      ],
      "name": "TokenPurchased",
      "type": "event"
    },
    {
      "anonymous": false,
      "inputs": [
        {
          "indexed": true,
          "internalType": "address",
          "name": "_seller",
          "type": "address"
        },
        {
          "indexed": true,
          "internalType": "address",
          "name": "_buyer",
          "type": "address"
        },
        {
          "indexed": false,
          "internalType": "string",
          "name": "orderId",
          "type": "string"
        },
        {
          "indexed": false,
          "internalType": "uint256",
          "name": "_tokenIdPurchased",
          "type": "uint256"
        }
      ],
      "name": "TokenSold",
      "type": "event"
    },
    {
      "anonymous": false,
      "inputs": [
        {
          "indexed": true,
          "internalType": "address",
          "name": "_seller",
          "type": "address"
        },
        {
          "indexed": true,
          "internalType": "address",
          "name": "_contract",
          "type": "address"
        },
        {
          "indexed": false,
          "internalType": "uint256",
          "name": "_tokenIdUnlisted",
          "type": "uint256"
        },
        {
          "indexed": false,
          "internalType": "string",
          "name": "_orderid",
          "type": "string"
        }
      ],
      "name": "TokenUnlisted",
      "type": "event"
    },
    {
      "stateMutability": "payable",
      "type": "fallback"
    },
    {
      "inputs": [
        {
          "internalType": "uint256",
          "name": "_amt",
          "type": "uint256"
        }
      ],
      "name": "changeBidIncAmt",
      "outputs": [],
      "stateMutability": "nonpayable",
      "type": "function"
    },
    {
      "inputs": [
        {
          "internalType": "uint256",
          "name": "_per",
          "type": "uint256"
        }
      ],
      "name": "changeBidIncPercent",
      "outputs": [],
      "stateMutability": "nonpayable",
      "type": "function"
    },
    {
      "inputs": [
        {
          "internalType": "uint256",
          "name": "_new",
          "type": "uint256"
        }
      ],
      "name": "changeMinAuctionPrice",
      "outputs": [],
      "stateMutability": "nonpayable",
      "type": "function"
    },
    {
      "inputs": [
        {
          "internalType": "address",
          "name": "_newOwner",
          "type": "address"
        }
      ],
      "name": "changeOwnerAddress",
      "outputs": [],
      "stateMutability": "nonpayable",
      "type": "function"
    },
    {
      "inputs": [
        {
          "internalType": "string",
          "name": "orderID",
          "type": "string"
        }
      ],
      "name": "confirmSale",
      "outputs": [],
      "stateMutability": "nonpayable",
      "type": "function"
    },
    {
      "inputs": [
        {
          "internalType": "string",
          "name": "orderID",
          "type": "string"
        },
        {
          "internalType": "uint256",
          "name": "buyAmount",
          "type": "uint256"
        },
        {
          "internalType": "address",
          "name": "contractAddr",
          "type": "address"
        },
        {
          "internalType": "uint256",
          "name": "tokenId",
          "type": "uint256"
        },
        {
          "internalType": "enum Escrow.nftType",
          "name": "tktype",
          "type": "uint8"
        },
        {
          "internalType": "address payable",
          "name": "seller",
          "type": "address"
        },
        {
          "internalType": "uint256",
          "name": "listedPrice",
          "type": "uint256"
        },
        {
          "internalType": "uint256",
          "name": "listedAmount",
          "type": "uint256"
        },
        {
          "internalType": "bytes",
          "name": "signature",
          "type": "bytes"
        }
      ],
      "name": "fulfillSale",
      "outputs": [],
      "stateMutability": "payable",
      "type": "function"
    },
    {
      "inputs": [
        {
          "internalType": "bytes32",
          "name": "_messageHash",
          "type": "bytes32"
        }
      ],
      "name": "getEthSignedMessageHash",
      "outputs": [
        {
          "internalType": "bytes32",
          "name": "",
          "type": "bytes32"
        }
      ],
      "stateMutability": "pure",
      "type": "function"
    },
    {
      "inputs": [
        {
          "internalType": "string",
          "name": "orderID",
          "type": "string"
        },
        {
          "internalType": "uint256",
          "name": "listedAmount",
          "type": "uint256"
        },
        {
          "internalType": "address",
          "name": "contractAddr",
          "type": "address"
        },
        {
          "internalType": "uint256",
          "name": "tokenId",
          "type": "uint256"
        },
        {
          "internalType": "uint256",
          "name": "price",
          "type": "uint256"
        },
        {
          "internalType": "enum Escrow.orderType",
          "name": "ordertype",
          "type": "uint8"
        }
      ],
      "name": "getMessageHash",
      "outputs": [
        {
          "internalType": "bytes32",
          "name": "",
          "type": "bytes32"
        }
      ],
      "stateMutability": "pure",
      "type": "function"
    },
    {
      "inputs": [],
      "name": "minPrice",
      "outputs": [
        {
          "internalType": "uint256",
          "name": "",
          "type": "uint256"
        }
      ],
      "stateMutability": "view",
      "type": "function"
    },
    {
      "inputs": [],
      "name": "minSalePrice",
      "outputs": [
        {
          "internalType": "uint256",
          "name": "",
          "type": "uint256"
        }
      ],
      "stateMutability": "view",
      "type": "function"
    },
    {
      "inputs": [
        {
          "internalType": "address",
          "name": "",
          "type": "address"
        },
        {
          "internalType": "address",
          "name": "",
          "type": "address"
        },
        {
          "internalType": "uint256[]",
          "name": "",
          "type": "uint256[]"
        },
        {
          "internalType": "uint256[]",
          "name": "",
          "type": "uint256[]"
        },
        {
          "internalType": "bytes",
          "name": "",
          "type": "bytes"
        }
      ],
      "name": "onERC1155BatchReceived",
      "outputs": [
        {
          "internalType": "bytes4",
          "name": "",
          "type": "bytes4"
        }
      ],
      "stateMutability": "nonpayable",
      "type": "function"
    },
    {
      "inputs": [
        {
          "internalType": "address",
          "name": "",
          "type": "address"
        },
        {
          "internalType": "address",
          "name": "",
          "type": "address"
        },
        {
          "internalType": "uint256",
          "name": "",
          "type": "uint256"
        },
        {
          "internalType": "uint256",
          "name": "",
          "type": "uint256"
        },
        {
          "internalType": "bytes",
          "name": "",
          "type": "bytes"
        }
      ],
      "name": "onERC1155Received",
      "outputs": [
        {
          "internalType": "bytes4",
          "name": "",
          "type": "bytes4"
        }
      ],
      "stateMutability": "nonpayable",
      "type": "function"
    },
    {
      "inputs": [
        {
          "internalType": "address",
          "name": "",
          "type": "address"
        },
        {
          "internalType": "address",
          "name": "",
          "type": "address"
        },
        {
          "internalType": "uint256",
          "name": "",
          "type": "uint256"
        },
        {
          "internalType": "bytes",
          "name": "",
          "type": "bytes"
        }
      ],
      "name": "onERC721Received",
      "outputs": [
        {
          "internalType": "bytes4",
          "name": "",
          "type": "bytes4"
        }
      ],
      "stateMutability": "nonpayable",
      "type": "function"
    },
    {
      "inputs": [
        {
          "internalType": "string",
          "name": "",
          "type": "string"
        }
      ],
      "name": "orders",
      "outputs": [
        {
          "internalType": "enum Escrow.Stage",
          "name": "stage",
          "type": "uint8"
        },
        {
          "internalType": "address payable",
          "name": "seller",
          "type": "address"
        },
        {
          "internalType": "uint256",
          "name": "tokenID",
          "type": "uint256"
        },
        {
          "internalType": "address",
          "name": "contractAddr",
          "type": "address"
        },
        {
          "internalType": "enum Escrow.orderType",
          "name": "ordertype",
          "type": "uint8"
        },
        {
          "internalType": "uint256",
          "name": "highestBid",
          "type": "uint256"
        },
        {
          "internalType": "address",
          "name": "highestBidder",
          "type": "address"
        },
        {
          "internalType": "uint256",
          "name": "minBid",
          "type": "uint256"
        },
        {
          "internalType": "uint256",
          "name": "amountListed",
          "type": "uint256"
        },
        {
          "internalType": "uint256",
          "name": "timeLimit",
          "type": "uint256"
        }
      ],
      "stateMutability": "view",
      "type": "function"
    },
    {
      "inputs": [
        {
          "internalType": "string",
          "name": "orderID",
          "type": "string"
        },
        {
          "internalType": "address",
          "name": "contractAddr",
          "type": "address"
        },
        {
          "internalType": "uint256",
          "name": "tokenId",
          "type": "uint256"
        },
        {
          "internalType": "enum Escrow.nftType",
          "name": "tktype",
          "type": "uint8"
        },
        {
          "internalType": "address payable",
          "name": "seller",
          "type": "address"
        },
        {
          "internalType": "uint256",
          "name": "minBid",
          "type": "uint256"
        },
        {
          "internalType": "uint256",
          "name": "timeLimit",
          "type": "uint256"
        },
        {
          "internalType": "bytes",
          "name": "signature",
          "type": "bytes"
        }
      ],
      "name": "placeBid",
      "outputs": [],
      "stateMutability": "payable",
      "type": "function"
    },
    {
      "inputs": [
        {
          "internalType": "bytes32",
          "name": "_ethSignedMessageHash",
          "type": "bytes32"
        },
        {
          "internalType": "bytes",
          "name": "_signature",
          "type": "bytes"
        }
      ],
      "name": "recoverSigner",
      "outputs": [
        {
          "internalType": "address",
          "name": "",
          "type": "address"
        }
      ],
      "stateMutability": "pure",
      "type": "function"
    },
    {
      "inputs": [
        {
          "internalType": "bytes",
          "name": "sig",
          "type": "bytes"
        }
      ],
      "name": "splitSignature",
      "outputs": [
        {
          "internalType": "bytes32",
          "name": "r",
          "type": "bytes32"
        },
        {
          "internalType": "bytes32",
          "name": "s",
          "type": "bytes32"
        },
        {
          "internalType": "uint8",
          "name": "v",
          "type": "uint8"
        }
      ],
      "stateMutability": "pure",
      "type": "function"
    },
    {
      "inputs": [
        {
          "internalType": "bytes4",
          "name": "interfaceId",
          "type": "bytes4"
        }
      ],
      "name": "supportsInterface",
      "outputs": [
        {
          "internalType": "bool",
          "name": "",
          "type": "bool"
        }
      ],
      "stateMutability": "view",
      "type": "function"
    },
    {
      "inputs": [
        {
          "internalType": "string",
          "name": "",
          "type": "string"
        }
      ],
      "name": "tokenType",
      "outputs": [
        {
          "internalType": "enum Escrow.nftType",
          "name": "",
          "type": "uint8"
        }
      ],
      "stateMutability": "view",
      "type": "function"
    },
    {
      "inputs": [
        {
          "internalType": "string",
          "name": "orderID",
          "type": "string"
        },
        {
          "internalType": "address",
          "name": "contractAddr",
          "type": "address"
        },
        {
          "internalType": "uint256",
          "name": "tokenId",
          "type": "uint256"
        },
        {
          "internalType": "enum Escrow.nftType",
          "name": "tktype",
          "type": "uint8"
        },
        {
          "internalType": "address payable",
          "name": "seller",
          "type": "address"
        },
        {
          "internalType": "uint256",
          "name": "minBid",
          "type": "uint256"
        },
        {
          "internalType": "uint256",
          "name": "timeLimit",
          "type": "uint256"
        },
        {
          "internalType": "bytes",
          "name": "signature",
          "type": "bytes"
        }
      ],
      "name": "unlistAuction",
      "outputs": [],
      "stateMutability": "nonpayable",
      "type": "function"
    },
    {
      "inputs": [
        {
          "internalType": "string",
          "name": "orderID",
          "type": "string"
        },
        {
          "internalType": "uint256",
          "name": "buyAmount",
          "type": "uint256"
        },
        {
          "internalType": "address",
          "name": "contractAddr",
          "type": "address"
        },
        {
          "internalType": "uint256",
          "name": "tokenId",
          "type": "uint256"
        },
        {
          "internalType": "enum Escrow.nftType",
          "name": "tktype",
          "type": "uint8"
        },
        {
          "internalType": "address payable",
          "name": "seller",
          "type": "address"
        },
        {
          "internalType": "uint256",
          "name": "listedPrice",
          "type": "uint256"
        },
        {
          "internalType": "uint256",
          "name": "listedAmount",
          "type": "uint256"
        },
        {
          "internalType": "bytes",
          "name": "signature",
          "type": "bytes"
        }
      ],
      "name": "unlistSale",
      "outputs": [],
      "stateMutability": "nonpayable",
      "type": "function"
    },
    {
      "inputs": [
        {
          "internalType": "address",
          "name": "_signer",
          "type": "address"
        },
        {
          "internalType": "string",
          "name": "orderID",
          "type": "string"
        },
        {
          "internalType": "uint256",
          "name": "listedAmount",
          "type": "uint256"
        },
        {
          "internalType": "address",
          "name": "contractAddr",
          "type": "address"
        },
        {
          "internalType": "uint256",
          "name": "tokenId",
          "type": "uint256"
        },
        {
          "internalType": "uint256",
          "name": "price",
          "type": "uint256"
        },
        {
          "internalType": "enum Escrow.orderType",
          "name": "ordertype",
          "type": "uint8"
        },
        {
          "internalType": "bytes",
          "name": "signature",
          "type": "bytes"
        }
      ],
      "name": "verify",
      "outputs": [
        {
          "internalType": "bool",
          "name": "",
          "type": "bool"
        }
      ],
      "stateMutability": "pure",
      "type": "function"
    },
    {
      "stateMutability": "payable",
      "type": "receive"
    }
  ],
  "bytecode": "0x608034620000c357601f6200312238819003918201601f19168301916001600160401b03831184841017620000c85780849260c094604052833981010312620000c35780516001600160a01b0380821691829003620000c357602083015160408401519160608501519360a06080870151960151918216809203620000c35760016000556127108411620000c35760018060a01b03199081600254161760025560035416176003556001556006556007556008556040516130439081620000df8239f35b600080fd5b634e487b7160e01b600052604160045260246000fdfe60806040526004361015610018575b361561001657005b005b60003560e01c806301ffc9a7146101d0578063126f0ad8146101c757806314b9dd13146101be578063150b7a02146101b55780631a948947146101ac5780631f761386146101a3578063307bdf001461019a57806345f7fa21146101915780635ca11c34146101885780636b6710b41461017f5780637430f7421461017657806385eac05f1461016d578063901addda1461016457806397aba7f91461015b578063a7bb580314610152578063bc197c8114610149578063c16bed4d14610140578063da54741414610137578063e45be8eb1461012e578063e4669e4014610125578063f23a6e611461011c5763fa5408010361000e57610117612205565b61000e565b50610117612192565b50610117611d30565b50610117611d11565b50610117611cd4565b5061011761145b565b506101176113b4565b506101176112ea565b5061011761128d565b50610117611224565b506101176111b2565b5061011761108c565b50610117610f72565b50610117610f53565b5061011761087d565b50610117610840565b50610117610812565b5061011761074f565b506101176105f4565b5061011761049f565b50610117610277565b5034610272576020600319360112610272576004357fffffffff00000000000000000000000000000000000000000000000000000000811680910361027257807f4e2312e00000000000000000000000000000000000000000000000000000000060209214908115610248575b506040519015158152f35b7f01ffc9a7000000000000000000000000000000000000000000000000000000009150143861023d565b600080fd5b5034610272576020600319360112610272576102ac73ffffffffffffffffffffffffffffffffffffffff600354163314612224565b600435600755005b507f4e487b7100000000000000000000000000000000000000000000000000000000600052604160045260246000fd5b67ffffffffffffffff81116102f857604052565b6103006102b4565b604052565b90601f7fffffffffffffffffffffffffffffffffffffffffffffffffffffffffffffffe0910116810190811067ffffffffffffffff8211176102f857604052565b60405190610140820182811067ffffffffffffffff8211176102f857604052565b7fffffffffffffffffffffffffffffffffffffffffffffffffffffffffffffffe0601f60209267ffffffffffffffff81116103a3575b01160190565b6103ab6102b4565b61039d565b81601f82011215610272578035906103c782610367565b926103d56040519485610305565b8284526020838301011161027257816000926020809301838601378301015290565b73ffffffffffffffffffffffffffffffffffffffff81160361027257565b6003111561027257565b6101206003198201126102725767ffffffffffffffff91600435838111610272578261044d916004016103b0565b926024359260443561045e816103f7565b926064359260843561046f81610415565b9260a43561047c816103f7565b9260c4359260e43592610104359182116102725761049c916004016103b0565b90565b5034610272576104ae3661041f565b93509390919550600360ff6104c2896106b5565b54166104cd81610731565b146105b05761050894610503946104fc73ffffffffffffffffffffffffffffffffffffffff8099163314612b25565b8833612de2565b612305565b61053f610514836106b5565b60037fffffffffffffffffffffffffffffffffffffffffffffffffffffffffffffff00825416179055565b7fb5ce95a888dde765bb6fdffd3ddae69bc8efaa294653a5f5568642e6feb5c705610589600261056e856106b5565b015473ffffffffffffffffffffffffffffffffffffffff1690565b916001610595856106b5565b0154926105ab6040519283921695339583612b70565b0390a3005b606460405162461bcd60e51b815260206004820152601760248201527f4f7264657220697320616c726561647920636c6f7365640000000000000000006044820152fd5b5034610272576080600319360112610272576106116004356103f7565b61061c6024356103f7565b60643567ffffffffffffffff81116102725761063c9036906004016103b0565b5060206040517f150b7a02000000000000000000000000000000000000000000000000000000008152f35b6020600319820112610272576004359067ffffffffffffffff82116102725761049c916004016103b0565b60005b8381106106a55750506000910152565b8181015183820152602001610695565b60206106ce918160405193828580945193849201610692565b8101600481520301902090565b60206106f4918160405193828580945193849201610692565b8101600581520301902090565b507f4e487b7100000000000000000000000000000000000000000000000000000000600052602160045260246000fd5b6004111561073b57565b610743610701565b565b6003111561073b57565b50346102725761014061076961076436610667565b6106b5565b805460ff8116916001810154600282015460ff8160a01c1660038401549073ffffffffffffffffffffffffffffffffffffffff806004870154169360058701549582600760068a0154990154996040519b6004811015610805575b8c5260081c1660208b015260408a01521660608801526107e381610745565b608087015260a086015260c085015260e0840152610100830152610120820152f35b61080d610701565b6107c4565b503461027257602060ff61082d61082836610667565b6106db565b54166040519061083c81610745565b8152f35b50346102725760206003193601126102725761087573ffffffffffffffffffffffffffffffffffffffff600354163314612224565b600435600655005b503461027257602061088e36610667565b6108a161089a826106b5565b5460ff1690565b6108aa81610731565b6108b760018092146129c7565b60026108e4826108d5836108ca876106b5565b015460a01c60ff1690565b6108de81610745565b14612350565b61093361092c6109136108f6866106b5565b5460081c73ffffffffffffffffffffffffffffffffffffffff1690565b73ffffffffffffffffffffffffffffffffffffffff1690565b3314612a12565b600361093e846106b5565b01549161094d610514856106b5565b61096e610913835473ffffffffffffffffffffffffffffffffffffffff1690565b916109c76109bf6040948551988980927f0dfad31200000000000000000000000000000000000000000000000000000000825260049b8c915afa908115610f3b575b600091610f0d575b50866128b4565b612710900490565b926000826109d761089a896106db565b6109e081610745565b03610d81575073ffffffffffffffffffffffffffffffffffffffff610a0b6109138461056e8a6106b5565b16858285610a188a6106b5565b015481517f2a55205a000000000000000000000000000000000000000000000000000000008152808c019182526020820193909352829081906040010381855afa90816000918293610d50575b50610d4857505060009485935b610a7e6108f68a6106b5565b610a8b8b61056e8c6106b5565b9087610a968c6106b5565b015491853b15610272578b95600092838f610b1c8b51978896879586947ff242432a0000000000000000000000000000000000000000000000000000000086528501919060c0939173ffffffffffffffffffffffffffffffffffffffff809216845216602083015260408201526001606082015260a06080820152600060a08201520190565b03925af18015610d3b575b610d22575b505b610b37836106b5565b5460081c73ffffffffffffffffffffffffffffffffffffffff16968273ffffffffffffffffffffffffffffffffffffffff98898093169283911614157fd859b133af845603cde780acb95200a4c897f3e6b3ef7ca6e6e9812b303da8619a610c4d6105ab99600098899889988998610c5397610cae575b50610c479282610c1e61091361091385610c048f8080806109139c610bf46109136109136108f69f610913905473ffffffffffffffffffffffffffffffffffffffff1690565b5af1610bfe61242b565b50612a98565b5473ffffffffffffffffffffffffffffffffffffffff1690565b7feff80f33893a8a24a1285b257e39c25e0c0aa1e493bdbc37a8dc16addb98459d8c80a36106b5565b94612947565b906128a7565b90828215610ca5575bf115610c98575b83610c7d610c736108f6896106b5565b9861056e896106b5565b93610c87886106b5565b015491519485941697169583612b09565b610ca0612a6c565b610c63565b506108fc610c5c565b8415158a14610d04579261091392610c1e6109136109136108f6958e8080808d610c479d828215610cfb575bf115610cee575b9550505050925092610bae565b610cf6612a6c565b610ce1565b506108fc610cda565b5092506108f6610c479261091392610c1e6109136109138d98610ce1565b80610d2f610d35926102e4565b80610f48565b38610b2c565b610d43612a6c565b610b27565b959093610a72565b909250610d739150843d8611610d7a575b610d6b8183610305565b810190612a79565b9138610a65565b503d610d61565b8573ffffffffffffffffffffffffffffffffffffffff610da76109138661056e8c6106b5565b16918386610db48b6106b5565b015481517f2a55205a000000000000000000000000000000000000000000000000000000008152808d019182526020820194909452839081906040010381865afa80928293610eec575b50610ee457505060009485935b610e176108f68a6106b5565b610e248b61056e8c6106b5565b9087610e2f8c6106b5565b015491853b15610272578b95600092838f610eae8b51978896879586947fb88d4fde0000000000000000000000000000000000000000000000000000000086528501919060a0939173ffffffffffffffffffffffffffffffffffffffff8092168452166020830152604082015260806060820152600060808201520190565b03925af18015610ed7575b610ec4575b50610b2e565b80610d2f610ed1926102e4565b38610ebe565b610edf612a6c565b610eb9565b959093610e0b565b909250610f069150843d8611610d7a57610d6b8183610305565b9138610dfe565b610f2e915060203d8111610f34575b610f268183610305565b810190612a5d565b386109b8565b503d610f1c565b610f43612a6c565b6109b0565b600091031261027257565b5034610272576000600319360112610272576020600854604051908152f35b50346102725761010060031936011261027257600435610f91816103f7565b67ffffffffffffffff60243581811161027257610fb29036906004016103b0565b9160643590610fc0826103f7565b60c43590610fcd82610415565b60e4359384116102725761101094610fec610ffe9536906004016103b0565b9360a435926084359260443591612f47565b60405190151581529081906020820190565b0390f35b906101006003198301126102725767ffffffffffffffff6004358181116102725783611042916004016103b0565b9260243561104f816103f7565b926044359260643561106081610415565b9260843561106d816103f7565b9260a4359260c4359260e4359182116102725761049c916004016103b0565b5034610272576110d46105036110a136611014565b949298969795919350506110cd73ffffffffffffffffffffffffffffffffffffffff8099163314612295565b8633612eaa565b6110e760016108d560026108ca856106b5565b61110860036110f861089a846106b5565b61110181610731565b141561239b565b611114610514826106b5565b600361111f826106b5565b0154611173575b7fa141abdcf6de79d08d7edb87133b448a3a2c5b3cb575e3bbf6023bf0b15ae5456111536108f6836106b5565b92600161115f846106b5565b0154936105ab6040519283921694826124e9565b6111ad600080808061118f610913610913600461056e8a6106b5565b600361119a886106b5565b0154905af16111a761242b565b5061245b565b611126565b5034610272576020600319360112610272576004356111d0816103f7565b7fffffffffffffffffffffffff00000000000000000000000000000000000000006003549173ffffffffffffffffffffffffffffffffffffffff906112188285163314612224565b16911617600355600080f35b50346102725760c06003193601126102725760043567ffffffffffffffff81116102725761128561125b60209236906004016103b0565b604435611267816103f7565b60a4359161127483610415565b608435916064359160243590612cf9565b604051908152f35b50346102725760406003193601126102725760243567ffffffffffffffff8111610272576112cc6112c460209236906004016103b0565b600435612f62565b73ffffffffffffffffffffffffffffffffffffffff60405191168152f35b50346102725760206003193601126102725760043567ffffffffffffffff81116102725760ff61132861132360609336906004016103b0565b612faa565b906040939293519384526020840152166040820152f35b9080601f830112156102725781359067ffffffffffffffff82116113a7575b8160051b6040519360209361137585840187610305565b85528380860192820101928311610272578301905b828210611398575050505090565b8135815290830190830161138a565b6113af6102b4565b61135e565b50346102725760a0600319360112610272576113d16004356103f7565b6113dc6024356103f7565b67ffffffffffffffff604435818111610272576113fd90369060040161133f565b506064358181116102725761141690369060040161133f565b506084359081116102725761142f9036906004016103b0565b506040517fbc197c81000000000000000000000000000000000000000000000000000000008152602090f35b506114653661041f565b97959373ffffffffffffffffffffffffffffffffffffffff95929395988987169061149590868689878d87612de2565b61149e90612305565b6114a7886106b5565b5460ff166114b481610731565b1593611500926109bf95611c36575b505088151580611c1b575b6114d790612b87565b6114f860036114e861089a8b6106b5565b6114f181610731565b14156124fa565b33141561273b565b61152a6115238861151d8160056115168c6106b5565b01546128b4565b956128b4565b3414612bd2565b61154c61091360025473ffffffffffffffffffffffffffffffffffffffff1690565b92604093896115a08651958680947f0dfad312000000000000000000000000000000000000000000000000000000008252602095869160049a8b915afa908115611c0e575b600091611bf1575b50856128b4565b9660008660026115b261089a8e6106db565b6115bb81610745565b036119bf57505086517fe985e9c500000000000000000000000000000000000000000000000000000000815273ffffffffffffffffffffffffffffffffffffffff909916868a019081523060208201529116976116409260019290919082908290819060400103818d5afa9182156119b2575b600092611985575b5050151514612c35565b611691848260016116508b6106b5565b0154825193849283927f2a55205a00000000000000000000000000000000000000000000000000000000845289840160209093929193604081019481520152565b03818a5afa90816000918293611964575b5061195d575050600095865b6116ba6108f68a6106b5565b9760016116c68b6106b5565b015495833b156102725760008d9961188361187d8f968f7f90da98b51497af571c5a5abb78ea212c0776da064c236a234943db21b40591e59f8f90988f6118ce9f9b808a6118949f9e819f829f9e839f84906117906117b49951978896879586947ff242432a00000000000000000000000000000000000000000000000000000000865233918601929060c0949273ffffffffffffffffffffffffffffffffffffffff80921685521660208401526040830152606082015260a06080820152600060a08201520190565b03925af18015611950575b61193d575b505b60066117ad866106b5565b01546128a7565b60066117bf856106b5565b015560066117cc846106b5565b01541561192c575b816117e16108f6856106b5565b911691829116036118d3575b506109136108f661187792611828898080808c610bf461091361091361091360025473ffffffffffffffffffffffffffffffffffffffff1690565b8761184e61091361091360025473ffffffffffffffffffffffffffffffffffffffff1690565b7feff80f33893a8a24a1285b257e39c25e0c0aa1e493bdbc37a8dc16addb98459d8b80a36106b5565b93612947565b886128a7565b905af161188e61242b565b50612c80565b6118a06108f6886106b5565b976118af600261056e8a6106b5565b9460016118bb8a6106b5565b01549051968796169a339a169886612ccb565b0390a4005b8215158714611919576108f661187792888080808861091397828215611910575bf115611903575b9250506117ed565b61190b612a6c565b6118fb565b506108fc6118f4565b5090506118776109136108f687936118fb565b611938610514846106b5565b6117d4565b80610d2f61194a926102e4565b386117a0565b611958612a6c565b61179b565b96906116ae565b90925061197e9150863d8811610d7a57610d6b8183610305565b91386116a2565b6119a49250803d106119ab575b61199c8183610305565b810190612c1d565b3880611636565b503d611992565b6119ba612a6c565b61162e565b88517fe985e9c500000000000000000000000000000000000000000000000000000000815273ffffffffffffffffffffffffffffffffffffffff909b16908b019081523060208201529190921698611a9093611a429260019290829082908e908290819060400103915afa918215611be4575b8592611985575050151514612c35565b85836001611a4f8c6106b5565b0154825194859283927f2a55205a0000000000000000000000000000000000000000000000000000000084528a840160209093929193604081019481520152565b03818b5afa80928293611bc3575b50611bbc575050600095865b611ab66108f68a6106b5565b976001611ac28b6106b5565b015495833b156102725760008d9961188361187d8f968f7f90da98b51497af571c5a5abb78ea212c0776da064c236a234943db21b40591e59f8f90988f6118ce9f9b611b868a6118949f9e819f829f9e839f84906117b49851968795869485937fb88d4fde00000000000000000000000000000000000000000000000000000000855233918501919060a0939173ffffffffffffffffffffffffffffffffffffffff8092168452166020830152604082015260806060820152600060808201520190565b03925af18015611baf575b611b9c575b506117a2565b80610d2f611ba9926102e4565b38611b96565b611bb7612a6c565b611b91565b9690611aaa565b909250611bdd9150863d8811610d7a57610d6b8183610305565b9138611a9e565b611bec612a6c565b611a32565b611c089150853d8711610f3457610f268183610305565b38611599565b611c16612a6c565b611591565b506114d76006611c2a8a6106b5565b01548a111590506114ce565b611cbf611ccd92611c45610346565b600281529073ffffffffffffffffffffffffffffffffffffffff8c166020830152604082015273ffffffffffffffffffffffffffffffffffffffff8a16606082015260026080820152600060a0820152600060c08201528860e0820152866101008201526000610120820152611cba8c6106b5565b612594565b611cc88a6106db565b612731565b38806114c3565b503461027257602060031936011261027257611d0973ffffffffffffffffffffffffffffffffffffffff600354163314612224565b600435600155005b5034610272576000600319360112610272576020600154604051908152f35b50611d3a36611014565b939095600097959293600289541461214e5760028955611d5c61089a886106b5565b94611d6686610731565b611d746003809714156124fa565b611d9c61050373ffffffffffffffffffffffffffffffffffffffff988388878d8d8916612eaa565b611da861089a896106b5565b611db181610731565b156120b1575b5050505050611dce6114f86109136108f6866106b5565b80611dd8846106b5565b0154341180612096575b611deb906127ac565b6007611e0381611dfa866106b5565b015442106127f7565b8582611e0e866106b5565b0154611f665750907fd7570b1186465f8b5845771414166a01137123ced72306566fcf2a77cf3ddc679291611e516005611e47876106b5565b015434101561297c565b3482611e5c876106b5565b0155611eae336004611e6d886106b5565b019073ffffffffffffffffffffffffffffffffffffffff167fffffffffffffffffffffffff0000000000000000000000000000000000000000825416179055565b611ec281611ebb876106b5565b0154612872565b42101580611f52575b611f2c575b50611f1b611ee06108f6866106b5565b95611eef600461056e886106b5565b926001611efb886106b5565b015490611f07886106b5565b015490856040519687961699169785612954565b0390a35b611f296001600055565b80f35b611f4081611f39876106b5565b0154612938565b90611f4a866106b5565b015538611ed0565b5080611f5d866106b5565b01544210611ecb565b9391849384939261204c9784611f8885611f8089986106b5565b0154346128a7565b611fa36109bf87611f98856106b5565b0154600654906128b4565b8454808211156120845750611fb99110156128c7565b7fd7570b1186465f8b5845771414166a01137123ced72306566fcf2a77cf3ddc678486611fe5846106b5565b015496611ff6600461056e866106b5565b953482612002876106b5565b0155612013336004611e6d886106b5565b61202081611ebb876106b5565b42101580612070575b612051575b5061203e611ee06108f6866106b5565b0390a3165af16111a761242b565b611f1f565b61205e81611f39876106b5565b90612068866106b5565b01553861202e565b508061207b866106b5565b01544210612029565b90506120919110156128c7565b611fb9565b50611deb60056120a5856106b5565b01543410159050611de2565b61210b61213b93612144966120e96120c7610346565b600181529573ffffffffffffffffffffffffffffffffffffffff166020870152565b604085015273ffffffffffffffffffffffffffffffffffffffff166060840152565b600160808301528960a08301528960c083015260e0820152600161010082015287610120820152611cba876106b5565b611cc8856106db565b3880808080611db7565b606460405162461bcd60e51b815260206004820152601f60248201527f5265656e7472616e637947756172643a207265656e7472616e742063616c6c006044820152fd5b50346102725760a0600319360112610272576121af6004356103f7565b6121ba6024356103f7565b60843567ffffffffffffffff8111610272576121da9036906004016103b0565b5060206040517ff23a6e61000000000000000000000000000000000000000000000000000000008152f35b5034610272576020600319360112610272576020611285600435612d80565b1561222b57565b608460405162461bcd60e51b815260206004820152602360248201527f4f6e6c79206f776e65722063616e2061636365737320746869732066756e637460448201527f696f6e00000000000000000000000000000000000000000000000000000000006064820152fd5b1561229c57565b608460405162461bcd60e51b8152602060048201526024808201527f4f6e6c792073656c6c65722063616e2061636365737320746869732066756e6360448201527f74696f6e000000000000000000000000000000000000000000000000000000006064820152fd5b1561230c57565b606460405162461bcd60e51b815260206004820152601660248201527f5369676e6174757265206e6f74207665726966696564000000000000000000006044820152fd5b1561235757565b606460405162461bcd60e51b815260206004820152601660248201527f4f726465722049442d54797065206d69736d61746368000000000000000000006044820152fd5b156123a257565b606460405162461bcd60e51b815260206004820152601460248201527f6f7264657220616c726561647920636c6f7365640000000000000000000000006044820152fd5b90600481101561241e575b60ff7fffffffffffffffffffffffffffffffffffffffffffffffffffffffffffffff008354169116179055565b612426610701565b6123f1565b3d15612456573d9061243c82610367565b9161244a6040519384610305565b82523d6000602084013e565b606090565b1561246257565b606460405162461bcd60e51b815260206004820152601160248201527f62696420726566756e64206661696c65640000000000000000000000000000006044820152fd5b907fffffffffffffffffffffffffffffffffffffffffffffffffffffffffffffffe0601f6020936124e281518092818752878088019101610692565b0116010190565b90602061049c9281815201906124a6565b1561250157565b606460405162461bcd60e51b815260206004820152600f60248201527f4f7264657220697320636c6f73656400000000000000000000000000000000006044820152fd5b9061254f81610745565b7fffffffffffffffffffffff00ffffffffffffffffffffffffffffffffffffffff74ff000000000000000000000000000000000000000083549260a01b169116179055565b906101206007916125af81516125a981610731565b856123e6565b6126196125d3602083015173ffffffffffffffffffffffffffffffffffffffff1690565b85547fffffffffffffffffffffff0000000000000000000000000000000000000000ff1660089190911b74ffffffffffffffffffffffffffffffffffffffff0016178555565b604081015160018501556126a36002850161268f61264e606085015173ffffffffffffffffffffffffffffffffffffffff1690565b829073ffffffffffffffffffffffffffffffffffffffff167fffffffffffffffffffffffff0000000000000000000000000000000000000000825416179055565b60808301519061269e82610745565b612545565b60a081015160038501556127156126d160c083015173ffffffffffffffffffffffffffffffffffffffff1690565b600486019073ffffffffffffffffffffffffffffffffffffffff167fffffffffffffffffffffffff0000000000000000000000000000000000000000825416179055565b60e0810151600585015561010081015160068501550151910155565b906123f181610745565b1561274257565b608460405162461bcd60e51b815260206004820152602160248201527f53656c6c6572732063616e277420627579207468656972206f776e20746f6b6560448201527f6e000000000000000000000000000000000000000000000000000000000000006064820152fd5b156127b357565b606460405162461bcd60e51b815260206004820152601060248201527f496e73756666696369656e7420626964000000000000000000000000000000006044820152fd5b156127fe57565b606460405162461bcd60e51b815260206004820152601860248201527f54696d65206578706972656420666f722061756374696f6e00000000000000006044820152fd5b507f4e487b7100000000000000000000000000000000000000000000000000000000600052601160045260246000fd5b907ffffffffffffffffffffffffffffffffffffffffffffffffffffffffffffffda8820191821161289f57565b610743612842565b9190820391821161289f57565b8181029291811591840414171561289f57565b156128ce57565b608460405162461bcd60e51b815260206004820152602a60248201527f436f6e736563757469766520626964277320696e6372656d656e74206e6f742060448201527f73756666696369656e74000000000000000000000000000000000000000000006064820152fd5b90610258820180921161289f57565b9190820180921161289f57565b909261296d6060939695946080845260808401906124a6565b95602083015260408201520152565b1561298357565b606460405162461bcd60e51b815260206004820152601660248201527f4c6f776572207468616e206d696e696d756d20626964000000000000000000006044820152fd5b156129ce57565b606460405162461bcd60e51b815260206004820152601d60248201527f4f7264657220697320636c6f736564206f7220686173206e6f206269640000006044820152fd5b15612a1957565b606460405162461bcd60e51b815260206004820152601c60248201527f4f6e6c792073656c6c65722063616e20636f6e6669726d2073616c65000000006044820152fd5b90816020910312610272575190565b506040513d6000823e3d90fd5b91908260409103126102725760208251612a92816103f7565b92015190565b15612a9f57565b608460405162461bcd60e51b815260206004820152602760248201527f436f6d6d697373696f6e206e6f7420637265646974656420746f206d61726b6560448201527f74206f776e6572000000000000000000000000000000000000000000000000006064820152fd5b929190612b206020916040865260408601906124a6565b930152565b15612b2c57565b606460405162461bcd60e51b815260206004820152601b60248201527f4f6e6c792073656c6c65722063616e20756e6c6973742073616c6500000000006044820152fd5b60409061049c9392815281602082015201906124a6565b15612b8e57565b606460405162461bcd60e51b815260206004820152601b60248201527f496e76616c69642062757920616d6f756e742070726f766964656400000000006044820152fd5b15612bd957565b606460405162461bcd60e51b815260206004820152601260248201527f496e73756666696369656e742066756e647300000000000000000000000000006044820152fd5b90816020910312610272575180151581036102725790565b15612c3c57565b606460405162461bcd60e51b815260206004820152601360248201527f457363726f77206e6f7420617070726f766564000000000000000000000000006044820152fd5b15612c8757565b606460405162461bcd60e51b815260206004820152601f60248201527f4561726e696e6773206e6f7420637265646974656420746f2073656c6c6572006044820152fd5b919594939092612ce560809460a0855260a08501906124a6565b966020840152604083015260608201520152565b9490609592917fffffffffffffffffffffffffffffffffffffffff00000000000000000000000095612d7a956040519788956020612d408189019c8d815193849201610692565b870195602087015260601b16604085015260548401526074830152612d6481610745565b60f81b6094820152036075810184520182610305565b51902090565b60405160208101917f19457468657265756d205369676e6564204d6573736167653a0a3332000000008352603c820152603c81526060810181811067ffffffffffffffff821117612dd5575b60405251902090565b612ddd6102b4565b612dcc565b95936095612e87947fffffffffffffffffffffffffffffffffffffffff0000000000000000000000009394612e8c98612e7f946040519687946020612e308188019b8c815193849201610692565b860194602086015260601b166040840152605483015260748201527f02000000000000000000000000000000000000000000000000000000000000006094820152036075810184520182610305565b519020612d80565b612f62565b73ffffffffffffffffffffffffffffffffffffffff90811691161490565b949293612e7f6095612e8c96612e87956040519485927fffffffffffffffffffffffffffffffffffffffff0000000000000000000000006020612ef68187019a8b815193849201610692565b8501936001602086015260601b166040840152605483015260748201527f01000000000000000000000000000000000000000000000000000000000000006094820152036075810184520182610305565b96949093612f5d93612e8c9793612e8796612cf9565b612d80565b608060009160ff612f74602095612faa565b6040805195865293168785015291830152606082015282805260015afa15612f9d575b60005190565b612fa5612a6c565b612f97565b6041815103612fc9576020810151916060604083015192015160001a90565b606460405162461bcd60e51b815260206004820152601860248201527f696e76616c6964207369676e6174757265206c656e67746800000000000000006044820152fdfea264697066735822122004043d12d7455a31d8e5927d276c5c3c77367b379038b159c9e3cbb7eabd436e64736f6c63430008110033",
  "linkReferences": {},
  "deployedLinkReferences": {}
}