{
  "_format": "hh-sol-artifact-1",
  "contractName": "MarketManagement",
  "sourceName": "contracts/MarketManagement.sol",
  "abi": [
    {
      "inputs": [
        {
          "internalType": "address",
          "name": "_owner",
          "type": "address"
        },
        {
          "internalType": "uint256",
          "name": "_earningCommission",
          "type": "uint256"
        },
        {
          "internalType": "bool",
          "name": "_isMarketplace",
          "type": "bool"
        }
      ],
      "stateMutability": "nonpayable",
      "type": "constructor"
    },
    {
      "anonymous": false,
      "inputs": [
        {
          "indexed": true,
          "internalType": "address",
          "name": "MarketManager",
          "type": "address"
        },
        {
          "indexed": true,
          "internalType": "address",
          "name": "creator",
          "type": "address"
        }
      ],
      "name": "AddedShopCreator",
      "type": "event"
    },
    {
      "anonymous": false,
      "inputs": [
        {
          "indexed": true,
          "internalType": "address",
          "name": "_fundManager",
          "type": "address"
        },
        {
          "indexed": true,
          "internalType": "uint256",
          "name": "_amtWithdrawn",
          "type": "uint256"
        }
      ],
      "name": "EarningsWithdrawn",
      "type": "event"
    },
    {
      "anonymous": false,
      "inputs": [
        {
          "indexed": true,
          "internalType": "address",
          "name": "MarketManager",
          "type": "address"
        },
        {
          "indexed": false,
          "internalType": "uint256",
          "name": "new_commission",
          "type": "uint256"
        }
      ],
      "name": "MarketCommissionChanged",
      "type": "event"
    },
    {
      "anonymous": false,
      "inputs": [
        {
          "indexed": true,
          "internalType": "address",
          "name": "_fundManager",
          "type": "address"
        },
        {
          "indexed": true,
          "internalType": "bool",
          "name": "_isMarketplace",
          "type": "bool"
        }
      ],
      "name": "MarketInitiated",
      "type": "event"
    },
    {
      "anonymous": false,
      "inputs": [
        {
          "indexed": true,
          "internalType": "address",
          "name": "MarketManager",
          "type": "address"
        },
        {
          "indexed": true,
          "internalType": "address",
          "name": "creator",
          "type": "address"
        }
      ],
      "name": "RemovedShopCreator",
      "type": "event"
    },
    {
      "stateMutability": "payable",
      "type": "fallback"
    },
    {
      "inputs": [
        {
          "internalType": "address",
          "name": "_addr",
          "type": "address"
        }
      ],
      "name": "addShopCreator",
      "outputs": [],
      "stateMutability": "nonpayable",
      "type": "function"
    },
    {
      "inputs": [],
      "name": "balance",
      "outputs": [
        {
          "internalType": "uint256",
          "name": "",
          "type": "uint256"
        }
      ],
      "stateMutability": "view",
      "type": "function"
    },
    {
      "inputs": [
        {
          "internalType": "uint256",
          "name": "newCommission",
          "type": "uint256"
        }
      ],
      "name": "changeEarningCommission",
      "outputs": [],
      "stateMutability": "nonpayable",
      "type": "function"
    },
    {
      "inputs": [
        {
          "internalType": "address",
          "name": "_newOwner",
          "type": "address"
        }
      ],
      "name": "changeOwnerAddress",
      "outputs": [],
      "stateMutability": "nonpayable",
      "type": "function"
    },
    {
      "inputs": [],
      "name": "earningCommission",
      "outputs": [
        {
          "internalType": "uint256",
          "name": "",
          "type": "uint256"
        }
      ],
      "stateMutability": "view",
      "type": "function"
    },
    {
      "inputs": [],
      "name": "isMarketplace",
      "outputs": [
        {
          "internalType": "bool",
          "name": "",
          "type": "bool"
        }
      ],
      "stateMutability": "view",
      "type": "function"
    },
    {
      "inputs": [
        {
          "internalType": "address",
          "name": "_addr",
          "type": "address"
        }
      ],
      "name": "isShopCreator",
      "outputs": [
        {
          "internalType": "bool",
          "name": "",
          "type": "bool"
        }
      ],
      "stateMutability": "view",
      "type": "function"
    },
    {
      "inputs": [
        {
          "internalType": "address",
          "name": "_addr",
          "type": "address"
        }
      ],
      "name": "removeShopCreator",
      "outputs": [],
      "stateMutability": "nonpayable",
      "type": "function"
    },
    {
      "inputs": [
        {
          "internalType": "uint256",
          "name": "_amount",
          "type": "uint256"
        },
        {
          "internalType": "address payable",
          "name": "_to",
          "type": "address"
        }
      ],
      "name": "withdrawEarnings",
      "outputs": [],
      "stateMutability": "nonpayable",
      "type": "function"
    },
    {
      "stateMutability": "payable",
      "type": "receive"
    }
  ],
  "bytecode": "0x60803461012b57601f6109a838819003918201601f19168301916001600160401b038311848410176101305780849260609460405283398101031261012b5780516001600160a01b038116919082900361012b57604060208201519101519182151580930361012b5760016000556103e882116100ce5760018060a01b0319600154161760015560025560ff196003541660ff82161760035560405190307f54896dbab46a0c6ff1a77f13eaa6075d59eab55d6f03349bad3652aee9282427600080a361086190816101478239f35b60405162461bcd60e51b815260206004820152602f60248201527f436f6d6d697373696f6e2070657263656e74616765206d75737420626520626560448201526e747765656e203020616e642031302560881b6064820152608490fd5b600080fd5b634e487b7160e01b600052604160045260246000fdfe608060408181526004918236101561001f575b505050361561001d57005b005b600092833560e01c9182630dfad3121461063d575081630eeffb321461053b57816314bb75a5146104f15781632057089e146103fa578163322aabae146102d457816385eac05f146101ff578163b69ef8a8146101e4578163dc8585d9146100b8575063f4b86c48146100925780610012565b346100b457816003193601126100b45760209060ff6003541690519015158152f35b5080fd5b919050346101e05760206003193601126101e05781359173ffffffffffffffffffffffffffffffffffffffff8084168094036101dc576100fd90600154163314610659565b61010c60ff60035416156106e4565b61011783151561076f565b8284528060205260ff8285205416156101805782845260205282207fffffffffffffffffffffffffffffffffffffffffffffffffffffffffffffff008154169055307f1fcf79abe74e1b9a8f1e952b68d164cba49d406365b899d9a647069e13425e3d8380a380f35b602060649251917f08c379a0000000000000000000000000000000000000000000000000000000008352820152601a60248201527f416c7265616479206e6f7420612073686f702063726561746f720000000000006044820152fd5b8480fd5b8280fd5b5050346100b457816003193601126100b45751478152602090f35b919050346101e05760206003193601126101e05781359173ffffffffffffffffffffffffffffffffffffffff918284168094036101dc576102466001549384163314610659565b83156102775750507fffffffffffffffffffffffff0000000000000000000000000000000000000000161760015580f35b90602060649251917f08c379a0000000000000000000000000000000000000000000000000000000008352820152601d60248201527f4f776e65722063616e6e6f74206265206e756c6c2061646472657373210000006044820152fd5b919050346101e05760206003193601126101e05781359173ffffffffffffffffffffffffffffffffffffffff8084168094036101dc5761031990600154163314610659565b61032860ff60035416156106e4565b61033383151561076f565b8284528060205260ff828520541661039e57828452602052822060017fffffffffffffffffffffffffffffffffffffffffffffffffffffffffffffff00825416179055307f4edcdc783198afc11f9b2e58c25631b06664fdea64b6b06c5dfdac9158a98b0d8380a380f35b602060649251917f08c379a0000000000000000000000000000000000000000000000000000000008352820152601660248201527f416c726561647920612073686f702063726561746f72000000000000000000006044820152fd5b919050346101e05760206003193601126101e05781359161043473ffffffffffffffffffffffffffffffffffffffff600154163314610659565b6103e8831161046f575081600255519081527f59f61a4107424a0e3e780cde165da3f210203151697a2199ccf6754e7f31a43360203092a280f35b602060849251917f08c379a0000000000000000000000000000000000000000000000000000000008352820152602f60248201527f436f6d6d697373696f6e2070657263656e74616765206d75737420626520626560448201527f747765656e203020616e642031302500000000000000000000000000000000006064820152fd5b9050346101e05760206003193601126101e057359173ffffffffffffffffffffffffffffffffffffffff83168303610538575061052f6020926107d4565b90519015158152f35b80fd5b9050346101e057816003193601126101e0578035906024359073ffffffffffffffffffffffffffffffffffffffff8083168093036106395761058290600154163314610659565b4783116105dc57508380838194938294307f48dc35af7b45e2a81fffad55f6e2fafacdb1d3d0d50d24ebdc16324f5ba757f18580a38282156105d3575bf1156105c9575080f35b51903d90823e3d90fd5b506108fc6105bf565b60649060208551917f08c379a0000000000000000000000000000000000000000000000000000000008352820152601560248201527f4e6f7420656e6f7567682062616c616e636521212100000000000000000000006044820152fd5b8580fd5b8490346100b457816003193601126100b4576020906002548152f35b1561066057565b60846040517f08c379a000000000000000000000000000000000000000000000000000000000815260206004820152602360248201527f4f6e6c79206f776e65722063616e2061636365737320746869732066756e637460448201527f696f6e00000000000000000000000000000000000000000000000000000000006064820152fd5b156106eb57565b60846040517f08c379a000000000000000000000000000000000000000000000000000000000815260206004820152602260248201527f4d61726b6574706c616365732068617665206e6f2073686f702063726561746f60448201527f72730000000000000000000000000000000000000000000000000000000000006064820152fd5b1561077657565b60646040517f08c379a000000000000000000000000000000000000000000000000000000000815260206004820152601e60248201527f4e756c6c20616464726573732063616e6e6f742062652063726561746f7200006044820152fd5b6107e360ff60035416156106e4565b73ffffffffffffffffffffffffffffffffffffffff8091169061080782151561076f565b6001541681036108175750600190565b600052600460205260ff604060002054169056fea2646970667358221220f984c3d2df165d434e4d81db83f5ee2a6c9fff6543871ad13893b85c3b7f9bd264736f6c63430008110033",
  "linkReferences": {},
  "deployedLinkReferences": {}
}